{"contracts/VaultGuardOracle.sol":{"VaultGuardOracle":{"abi":[{"inputs":[],"stateMutability":"nonpayable","type":"constructor"},{"anonymous":false,"inputs":[{"indexed":true,"internalType":"address","name":"agent","type":"address"}],"name":"AgentAuthorized","type":"event"},{"anonymous":false,"inputs":[{"indexed":true,"internalType":"address","name":"owner","type":"address"},{"indexed":false,"internalType":"uint256","name":"newCollateral","type":"uint256"}],"name":"AutoRebalance","type":"event"},{"anonymous":false,"inputs":[{"indexed":true,"internalType":"address","name":"owner","type":"address"},{"indexed":false,"internalType":"uint256","name":"currentLTV","type":"uint256"},{"indexed":false,"internalType":"uint256","name":"threshold","type":"uint256"}],"name":"LiquidationWarning","type":"event"},{"anonymous":false,"inputs":[{"indexed":true,"internalType":"address","name":"user","type":"address"},{"indexed":false,"internalType":"uint256","name":"price","type":"uint256"},{"indexed":false,"internalType":"bool","name":"isAbove","type":"bool"}],"name":"PriceAlertTriggered","type":"event"},{"anonymous":false,"inputs":[{"indexed":true,"internalType":"address","name":"owner","type":"address"},{"indexed":false,"internalType":"uint256","name":"collateral","type":"uint256"},{"indexed":false,"internalType":"uint256","name":"debt","type":"uint256"}],"name":"VaultCreated","type":"event"},{"inputs":[],"name":"LIQUIDATION_BUFFER","outputs":[{"internalType":"uint256","name":"","type":"uint256"}],"stateMutability":"view","type":"function"},{"inputs":[{"internalType":"address","name":"_agent","type":"address"}],"name":"authorizeAgent","outputs":[],"stateMutability":"nonpayable","type":"function"},{"inputs":[{"internalType":"address","name":"","type":"address"}],"name":"authorizedAgents","outputs":[{"internalType":"bool","name":"","type":"bool"}],"stateMutability":"view","type":"function"},{"inputs":[{"internalType":"address","name":"_owner","type":"address"}],"name":"calculateLTV","outputs":[{"internalType":"uint256","name":"","type":"uint256"}],"stateMutability":"view","type":"function"},{"inputs":[{"internalType":"address","name":"_owner","type":"address"}],"name":"checkLiquidationRisk","outputs":[{"internalType":"bool","name":"","type":"bool"},{"internalType":"uint256","name":"","type":"uint256"}],"stateMutability":"view","type":"function"},{"inputs":[{"internalType":"uint256","name":"_collateralAmount","type":"uint256"},{"internalType":"uint256","name":"_debtAmount","type":"uint256"},{"internalType":"uint256","name":"_liquidationThreshold","type":"uint256"}],"name":"createVault","outputs":[],"stateMutability":"nonpayable","type":"function"},{"inputs":[],"name":"getLatestPrice","outputs":[{"internalType":"int256","name":"","type":"int256"},{"internalType":"uint256","name":"","type":"uint256"}],"stateMutability":"view","type":"function"},{"inputs":[{"internalType":"address","name":"_owner","type":"address"}],"name":"getVaultInfo","outputs":[{"internalType":"uint256","name":"collateral","type":"uint256"},{"internalType":"uint256","name":"debt","type":"uint256"},{"internalType":"uint256","name":"ltv","type":"uint256"},{"internalType":"uint256","name":"threshold","type":"uint256"},{"internalType":"bool","name":"isActive","type":"bool"},{"internalType":"uint256","name":"lastUpdate","type":"uint256"}],"stateMutability":"view","type":"function"},{"inputs":[],"name":"mockPrice","outputs":[{"internalType":"uint256","name":"","type":"uint256"}],"stateMutability":"view","type":"function"},{"inputs":[],"name":"owner","outputs":[{"internalType":"address","name":"","type":"address"}],"stateMutability":"view","type":"function"},{"inputs":[{"internalType":"address","name":"","type":"address"},{"internalType":"uint256","name":"","type":"uint256"}],"name":"priceAlerts","outputs":[{"internalType":"uint256","name":"targetPrice","type":"uint256"},{"internalType":"bool","name":"isAbove","type":"bool"},{"internalType":"bool","name":"isTriggered","type":"bool"},{"internalType":"uint256","name":"timestamp","type":"uint256"}],"stateMutability":"view","type":"function"},{"inputs":[{"internalType":"uint256","name":"_price","type":"uint256"}],"name":"setMockPrice","outputs":[],"stateMutability":"nonpayable","type":"function"},{"inputs":[{"internalType":"uint256","name":"_targetPrice","type":"uint256"},{"internalType":"bool","name":"_isAbove","type":"bool"}],"name":"setPriceAlert","outputs":[],"stateMutability":"nonpayable","type":"function"},{"inputs":[{"internalType":"uint256","name":"_collateralAmount","type":"uint256"},{"internalType":"uint256","name":"_debtAmount","type":"uint256"}],"name":"updateVault","outputs":[],"stateMutability":"nonpayable","type":"function"},{"inputs":[{"internalType":"address","name":"_vault","type":"address"},{"internalType":"uint256","name":"_score","type":"uint256"}],"name":"updateVaultScore","outputs":[],"stateMutability":"nonpayable","type":"function"},{"inputs":[{"internalType":"uint256","name":"","type":"uint256"}],"name":"vaultOwners","outputs":[{"internalType":"address","name":"","type":"address"}],"stateMutability":"view","type":"function"},{"inputs":[{"internalType":"address","name":"","type":"address"}],"name":"vaultScores","outputs":[{"internalType":"uint256","name":"","type":"uint256"}],"stateMutability":"view","type":"function"},{"inputs":[{"internalType":"address","name":"","type":"address"}],"name":"vaults","outputs":[{"internalType":"address","name":"owner","type":"address"},{"internalType":"uint256","name":"collateralAmount","type":"uint256"},{"internalType":"uint256","name":"debtAmount","type":"uint256"},{"internalType":"uint256","name":"liquidationThreshold","type":"uint256"},{"internalType":"bool","name":"isActive","type":"bool"},{"internalType":"uint256","name":"lastUpdateTime","type":"uint256"}],"stateMutability":"view","type":"function"}],"evm":{"bytecode":{"linkReferences":{},"object":"6080604052642e90edd00060065534801561001957600080fd5b50600580546001600160a01b031916339081179091556000908152600360205260409020805460ff19166001179055610b58806100576000396000f3fe608060405234801561001057600080fd5b50600436106101165760003560e01c80638da5cb5b116100a2578063c7207e7411610071578063c7207e7414610381578063d70e3ed31461038a578063efd760651461039d578063feca9cc0146103d0578063ff5d4efb146103e357600080fd5b80638da5cb5b146102725780638e15f4731461029d57806390229af7146102b3578063a622ee7c146102f557600080fd5b80632ac0cdab116100e95780632ac0cdab146101935780636d88b24d14610223578063738006791461023657806383da2a3c146102565780638b60a3ee1461025f57600080fd5b8063067423071461011b578063137a9acb1461013057806316b0819e146101565780632910b22d14610180575b600080fd5b61012e6101293660046109af565b61041c565b005b61014361013e3660046109d9565b6104b3565b6040519081526020015b60405180910390f35b6101696101643660046109d9565b610573565b60408051921515835260208301919091520161014d565b61012e61018e3660046109fb565b610606565b61012e6101a1366004610a27565b336000908152600260208181526040808420815160808101835296875294151586830190815290860184815242606088019081528654600181810189559787529390952096516003909302909601918255519381018054955115156101000261ff00199515159590951661ffff19909616959095179390931790935551910155565b61012e6102313660046109d9565b61075f565b6101436102443660046109d9565b60016020526000908152604090205481565b6101436101f481565b61012e61026d366004610a5c565b6107d5565b600554610285906001600160a01b031681565b6040516001600160a01b03909116815260200161014d565b600654604080519182524260208301520161014d565b6102c66102c13660046109d9565b61084f565b6040805196875260208701959095529385019290925260608401521515608083015260a082015260c00161014d565b6103486103033660046109d9565b6000602081905290815260409020805460018201546002830154600384015460048501546005909501546001600160a01b039094169492939192909160ff9091169086565b604080516001600160a01b03909716875260208701959095529385019290925260608401521515608083015260a082015260c00161014d565b61014360065481565b610285610398366004610a7e565b6108ea565b6103c06103ab3660046109d9565b60036020526000908152604090205460ff1681565b604051901515815260200161014d565b61012e6103de366004610a7e565b610914565b6103f66103f13660046109af565b610943565b60408051948552921515602085015290151591830191909152606082015260800161014d565b6005546001600160a01b0316331461044f5760405162461bcd60e51b815260040161044690610a97565b60405180910390fd5b60648111156104975760405162461bcd60e51b8152602060048201526014602482015273053636f7265206d757374206265203c3d203130360641b6044820152606401610446565b6001600160a01b03909116600090815260016020526040902055565b6001600160a01b03808216600090815260208181526040808320815160c08101835281549095168552600181015492850183905260028101549185019190915260038101546060850152600481015460ff16151560808501526005015460a084015290919082036105275750600092915050565b60065460006305f5e1008284602001516105419190610ad0565b61054b9190610aed565b90508083604001516127106105609190610ad0565b61056a9190610aed565b95945050505050565b6000806000610581846104b3565b6001600160a01b03808616600090815260208181526040808320815160c08101835281549095168552600181015492850192909252600282015490840152600381015460608401819052600482015460ff161515608085015260059091015460a084015292935090916105f7906101f490610b0f565b83101596929550919350505050565b61138881118015610618575061251c81105b6106585760405162461bcd60e51b8152602060048201526011602482015270125b9d985b1a59081d1a1c995cda1bdb19607a1b6044820152606401610446565b6040805160c081018252338082526020808301878152838501878152606085018781526001608087018181524260a0890190815260008881528088528a812099518a546001600160a01b039091166001600160a01b0319918216178b5596518a850155945160028a015592516003890155516004808901805492151560ff199093169290921790915591516005909701969096558054958601815590527f8a35acfbc15ff81a39ae7d344fd709f28e8600b4aa8c65c6b64bfe7fe36bd19b909301805490931682179092558251868152918201859052917f482cfbeb47f8c37dbc7f6d858203153f1728e4ea8f3343f4a3ffc6e7a6157134910160405180910390a2505050565b6005546001600160a01b031633146107895760405162461bcd60e51b815260040161044690610a97565b6001600160a01b038116600081815260036020526040808220805460ff19166001179055517f26e663c48c070d2d3c2bf6bcf88dc0a1e3ae99c58c36411130bed5924cf952669190a250565b3360009081526020819052604090206004015460ff1661082a5760405162461bcd60e51b815260206004820152601060248201526f5661756c74206e6f742061637469766560801b6044820152606401610446565b3360009081526020819052604090206001810192909255600282015542600590910155565b6001600160a01b03808216600090815260208181526040808320815160c081018352815490951685526001810154928501839052600281015491850182905260038101546060860152600481015460ff16151560808601526005015460a0850152919283928392839283928392906108c68a6104b3565b6060840151608085015160a090950151939c929b5090995097509195509350915050565b600481815481106108fa57600080fd5b6000918252602090912001546001600160a01b0316905081565b6005546001600160a01b0316331461093e5760405162461bcd60e51b815260040161044690610a97565b600655565b6002602052816000526040600020818154811061095f57600080fd5b600091825260209091206003909102018054600182015460029092015490935060ff80831693506101009092049091169084565b80356001600160a01b03811681146109aa57600080fd5b919050565b600080604083850312156109c257600080fd5b6109cb83610993565b946020939093013593505050565b6000602082840312156109eb57600080fd5b6109f482610993565b9392505050565b600080600060608486031215610a1057600080fd5b505081359360208301359350604090920135919050565b60008060408385031215610a3a57600080fd5b8235915060208301358015158114610a5157600080fd5b809150509250929050565b60008060408385031215610a6f57600080fd5b50508035926020909101359150565b600060208284031215610a9057600080fd5b5035919050565b6020808252600990820152682737ba1037bbb732b960b91b604082015260600190565b634e487b7160e01b600052601160045260246000fd5b8082028115828204841417610ae757610ae7610aba565b92915050565b600082610b0a57634e487b7160e01b600052601260045260246000fd5b500490565b81810381811115610ae757610ae7610aba56fea26469706673582212203dd441ca15df8336e0017e55b68a53d4b02d01b94502dc0e7bcd8b133ba2951d64736f6c63430008180033","opcodes":"PUSH1 0x80 PUSH1 0x40 MSTORE PUSH5 0x2E90EDD000 PUSH1 0x6 SSTORE CALLVALUE DUP1 ISZERO PUSH2 0x19 JUMPI PUSH1 0x0 DUP1 REVERT JUMPDEST POP PUSH1 0x5 DUP1 SLOAD PUSH1 0x1 PUSH1 0x1 PUSH1 0xA0 SHL SUB NOT AND CALLER SWAP1 DUP2 OR SWAP1 SWAP2 SSTORE PUSH1 0x0 SWAP1 DUP2 MSTORE PUSH1 0x3 PUSH1 0x20 MSTORE PUSH1 0x40 SWAP1 KECCAK256 DUP1 SLOAD PUSH1 0xFF NOT AND PUSH1 0x1 OR SWAP1 SSTORE PUSH2 0xB58 DUP1 PUSH2 0x57 PUSH1 0x0 CODECOPY PUSH1 0x0 RETURN INVALID PUSH1 0x80 PUSH1 0x40 MSTORE CALLVALUE DUP1 ISZERO PUSH2 0x10 JUMPI PUSH1 0x0 DUP1 REVERT JUMPDEST POP PUSH1 0x4 CALLDATASIZE LT PUSH2 0x116 JUMPI PUSH1 0x0 CALLDATALOAD PUSH1 0xE0 SHR DUP1 PUSH4 0x8DA5CB5B GT PUSH2 0xA2 JUMPI DUP1 PUSH4 0xC7207E74 GT PUSH2 0x71 JUMPI DUP1 PUSH4 0xC7207E74 EQ PUSH2 0x381 JUMPI DUP1 PUSH4 0xD70E3ED3 EQ PUSH2 0x38A JUMPI DUP1 PUSH4 0xEFD76065 EQ PUSH2 0x39D JUMPI DUP1 PUSH4 0xFECA9CC0 EQ PUSH2 0x3D0 JUMPI DUP1 PUSH4 0xFF5D4EFB EQ PUSH2 0x3E3 JUMPI PUSH1 0x0 DUP1 REVERT JUMPDEST DUP1 PUSH4 0x8DA5CB5B EQ PUSH2 0x272 JUMPI DUP1 PUSH4 0x8E15F473 EQ PUSH2 0x29D JUMPI DUP1 PUSH4 0x90229AF7 EQ PUSH2 0x2B3 JUMPI DUP1 PUSH4 0xA622EE7C EQ PUSH2 0x2F5 JUMPI PUSH1 0x0 DUP1 REVERT JUMPDEST DUP1 PUSH4 0x2AC0CDAB GT PUSH2 0xE9 JUMPI DUP1 PUSH4 0x2AC0CDAB EQ PUSH2 0x193 JUMPI DUP1 PUSH4 0x6D88B24D EQ PUSH2 0x223 JUMPI DUP1 PUSH4 0x73800679 EQ PUSH2 0x236 JUMPI DUP1 PUSH4 0x83DA2A3C EQ PUSH2 0x256 JUMPI DUP1 PUSH4 0x8B60A3EE EQ PUSH2 0x25F JUMPI PUSH1 0x0 DUP1 REVERT JUMPDEST DUP1 PUSH4 0x6742307 EQ PUSH2 0x11B JUMPI DUP1 PUSH4 0x137A9ACB EQ PUSH2 0x130 JUMPI DUP1 PUSH4 0x16B0819E EQ PUSH2 0x156 JUMPI DUP1 PUSH4 0x2910B22D EQ PUSH2 0x180 JUMPI JUMPDEST PUSH1 0x0 DUP1 REVERT JUMPDEST PUSH2 0x12E PUSH2 0x129 CALLDATASIZE PUSH1 0x4 PUSH2 0x9AF JUMP JUMPDEST PUSH2 0x41C JUMP JUMPDEST STOP JUMPDEST PUSH2 0x143 PUSH2 0x13E CALLDATASIZE PUSH1 0x4 PUSH2 0x9D9 JUMP JUMPDEST PUSH2 0x4B3 JUMP JUMPDEST PUSH1 0x40 MLOAD SWAP1 DUP2 MSTORE PUSH1 0x20 ADD JUMPDEST PUSH1 0x40 MLOAD DUP1 SWAP2 SUB SWAP1 RETURN JUMPDEST PUSH2 0x169 PUSH2 0x164 CALLDATASIZE PUSH1 0x4 PUSH2 0x9D9 JUMP JUMPDEST PUSH2 0x573 JUMP JUMPDEST PUSH1 0x40 DUP1 MLOAD SWAP3 ISZERO ISZERO DUP4 MSTORE PUSH1 0x20 DUP4 ADD SWAP2 SWAP1 SWAP2 MSTORE ADD PUSH2 0x14D JUMP JUMPDEST PUSH2 0x12E PUSH2 0x18E CALLDATASIZE PUSH1 0x4 PUSH2 0x9FB JUMP JUMPDEST PUSH2 0x606 JUMP JUMPDEST PUSH2 0x12E PUSH2 0x1A1 CALLDATASIZE PUSH1 0x4 PUSH2 0xA27 JUMP JUMPDEST CALLER PUSH1 0x0 SWAP1 DUP2 MSTORE PUSH1 0x2 PUSH1 0x20 DUP2 DUP2 MSTORE PUSH1 0x40 DUP1 DUP5 KECCAK256 DUP2 MLOAD PUSH1 0x80 DUP2 ADD DUP4 MSTORE SWAP7 DUP8 MSTORE SWAP5 ISZERO ISZERO DUP7 DUP4 ADD SWAP1 DUP2 MSTORE SWAP1 DUP7 ADD DUP5 DUP2 MSTORE TIMESTAMP PUSH1 0x60 DUP9 ADD SWAP1 DUP2 MSTORE DUP7 SLOAD PUSH1 0x1 DUP2 DUP2 ADD DUP10 SSTORE SWAP8 DUP8 MSTORE SWAP4 SWAP1 SWAP6 KECCAK256 SWAP7 MLOAD PUSH1 0x3 SWAP1 SWAP4 MUL SWAP1 SWAP7 ADD SWAP2 DUP3 SSTORE MLOAD SWAP4 DUP2 ADD DUP1 SLOAD SWAP6 MLOAD ISZERO ISZERO PUSH2 0x100 MUL PUSH2 0xFF00 NOT SWAP6 ISZERO ISZERO SWAP6 SWAP1 SWAP6 AND PUSH2 0xFFFF NOT SWAP1 SWAP7 AND SWAP6 SWAP1 SWAP6 OR SWAP4 SWAP1 SWAP4 OR SWAP1 SWAP4 SSTORE MLOAD SWAP2 ADD SSTORE JUMP JUMPDEST PUSH2 0x12E PUSH2 0x231 CALLDATASIZE PUSH1 0x4 PUSH2 0x9D9 JUMP JUMPDEST PUSH2 0x75F JUMP JUMPDEST PUSH2 0x143 PUSH2 0x244 CALLDATASIZE PUSH1 0x4 PUSH2 0x9D9 JUMP JUMPDEST PUSH1 0x1 PUSH1 0x20 MSTORE PUSH1 0x0 SWAP1 DUP2 MSTORE PUSH1 0x40 SWAP1 KECCAK256 SLOAD DUP2 JUMP JUMPDEST PUSH2 0x143 PUSH2 0x1F4 DUP2 JUMP JUMPDEST PUSH2 0x12E PUSH2 0x26D CALLDATASIZE PUSH1 0x4 PUSH2 0xA5C JUMP JUMPDEST PUSH2 0x7D5 JUMP JUMPDEST PUSH1 0x5 SLOAD PUSH2 0x285 SWAP1 PUSH1 0x1 PUSH1 0x1 PUSH1 0xA0 SHL SUB AND DUP2 JUMP JUMPDEST PUSH1 0x40 MLOAD PUSH1 0x1 PUSH1 0x1 PUSH1 0xA0 SHL SUB SWAP1 SWAP2 AND DUP2 MSTORE PUSH1 0x20 ADD PUSH2 0x14D JUMP JUMPDEST PUSH1 0x6 SLOAD PUSH1 0x40 DUP1 MLOAD SWAP2 DUP3 MSTORE TIMESTAMP PUSH1 0x20 DUP4 ADD MSTORE ADD PUSH2 0x14D JUMP JUMPDEST PUSH2 0x2C6 PUSH2 0x2C1 CALLDATASIZE PUSH1 0x4 PUSH2 0x9D9 JUMP JUMPDEST PUSH2 0x84F JUMP JUMPDEST PUSH1 0x40 DUP1 MLOAD SWAP7 DUP8 MSTORE PUSH1 0x20 DUP8 ADD SWAP6 SWAP1 SWAP6 MSTORE SWAP4 DUP6 ADD SWAP3 SWAP1 SWAP3 MSTORE PUSH1 0x60 DUP5 ADD MSTORE ISZERO ISZERO PUSH1 0x80 DUP4 ADD MSTORE PUSH1 0xA0 DUP3 ADD MSTORE PUSH1 0xC0 ADD PUSH2 0x14D JUMP JUMPDEST PUSH2 0x348 PUSH2 0x303 CALLDATASIZE PUSH1 0x4 PUSH2 0x9D9 JUMP JUMPDEST PUSH1 0x0 PUSH1 0x20 DUP2 SWAP1 MSTORE SWAP1 DUP2 MSTORE PUSH1 0x40 SWAP1 KECCAK256 DUP1 SLOAD PUSH1 0x1 DUP3 ADD SLOAD PUSH1 0x2 DUP4 ADD SLOAD PUSH1 0x3 DUP5 ADD SLOAD PUSH1 0x4 DUP6 ADD SLOAD PUSH1 0x5 SWAP1 SWAP6 ADD SLOAD PUSH1 0x1 PUSH1 0x1 PUSH1 0xA0 SHL SUB SWAP1 SWAP5 AND SWAP5 SWAP3 SWAP4 SWAP2 SWAP3 SWAP1 SWAP2 PUSH1 0xFF SWAP1 SWAP2 AND SWAP1 DUP7 JUMP JUMPDEST PUSH1 0x40 DUP1 MLOAD PUSH1 0x1 PUSH1 0x1 PUSH1 0xA0 SHL SUB SWAP1 SWAP8 AND DUP8 MSTORE PUSH1 0x20 DUP8 ADD SWAP6 SWAP1 SWAP6 MSTORE SWAP4 DUP6 ADD SWAP3 SWAP1 SWAP3 MSTORE PUSH1 0x60 DUP5 ADD MSTORE ISZERO ISZERO PUSH1 0x80 DUP4 ADD MSTORE PUSH1 0xA0 DUP3 ADD MSTORE PUSH1 0xC0 ADD PUSH2 0x14D JUMP JUMPDEST PUSH2 0x143 PUSH1 0x6 SLOAD DUP2 JUMP JUMPDEST PUSH2 0x285 PUSH2 0x398 CALLDATASIZE PUSH1 0x4 PUSH2 0xA7E JUMP JUMPDEST PUSH2 0x8EA JUMP JUMPDEST PUSH2 0x3C0 PUSH2 0x3AB CALLDATASIZE PUSH1 0x4 PUSH2 0x9D9 JUMP JUMPDEST PUSH1 0x3 PUSH1 0x20 MSTORE PUSH1 0x0 SWAP1 DUP2 MSTORE PUSH1 0x40 SWAP1 KECCAK256 SLOAD PUSH1 0xFF AND DUP2 JUMP JUMPDEST PUSH1 0x40 MLOAD SWAP1 ISZERO ISZERO DUP2 MSTORE PUSH1 0x20 ADD PUSH2 0x14D JUMP JUMPDEST PUSH2 0x12E PUSH2 0x3DE CALLDATASIZE PUSH1 0x4 PUSH2 0xA7E JUMP JUMPDEST PUSH2 0x914 JUMP JUMPDEST PUSH2 0x3F6 PUSH2 0x3F1 CALLDATASIZE PUSH1 0x4 PUSH2 0x9AF JUMP JUMPDEST PUSH2 0x943 JUMP JUMPDEST PUSH1 0x40 DUP1 MLOAD SWAP5 DUP6 MSTORE SWAP3 ISZERO ISZERO PUSH1 0x20 DUP6 ADD MSTORE SWAP1 ISZERO ISZERO SWAP2 DUP4 ADD SWAP2 SWAP1 SWAP2 MSTORE PUSH1 0x60 DUP3 ADD MSTORE PUSH1 0x80 ADD PUSH2 0x14D JUMP JUMPDEST PUSH1 0x5 SLOAD PUSH1 0x1 PUSH1 0x1 PUSH1 0xA0 SHL SUB AND CALLER EQ PUSH2 0x44F JUMPI PUSH1 0x40 MLOAD PUSH3 0x461BCD PUSH1 0xE5 SHL DUP2 MSTORE PUSH1 0x4 ADD PUSH2 0x446 SWAP1 PUSH2 0xA97 JUMP JUMPDEST PUSH1 0x40 MLOAD DUP1 SWAP2 SUB SWAP1 REVERT JUMPDEST PUSH1 0x64 DUP2 GT ISZERO PUSH2 0x497 JUMPI PUSH1 0x40 MLOAD PUSH3 0x461BCD PUSH1 0xE5 SHL DUP2 MSTORE PUSH1 0x20 PUSH1 0x4 DUP3 ADD MSTORE PUSH1 0x14 PUSH1 0x24 DUP3 ADD MSTORE PUSH20 0x53636F7265206D757374206265203C3D2031303 PUSH1 0x64 SHL PUSH1 0x44 DUP3 ADD MSTORE PUSH1 0x64 ADD PUSH2 0x446 JUMP JUMPDEST PUSH1 0x1 PUSH1 0x1 PUSH1 0xA0 SHL SUB SWAP1 SWAP2 AND PUSH1 0x0 SWAP1 DUP2 MSTORE PUSH1 0x1 PUSH1 0x20 MSTORE PUSH1 0x40 SWAP1 KECCAK256 SSTORE JUMP JUMPDEST PUSH1 0x1 PUSH1 0x1 PUSH1 0xA0 SHL SUB DUP1 DUP3 AND PUSH1 0x0 SWAP1 DUP2 MSTORE PUSH1 0x20 DUP2 DUP2 MSTORE PUSH1 0x40 DUP1 DUP4 KECCAK256 DUP2 MLOAD PUSH1 0xC0 DUP2 ADD DUP4 MSTORE DUP2 SLOAD SWAP1 SWAP6 AND DUP6 MSTORE PUSH1 0x1 DUP2 ADD SLOAD SWAP3 DUP6 ADD DUP4 SWAP1 MSTORE PUSH1 0x2 DUP2 ADD SLOAD SWAP2 DUP6 ADD SWAP2 SWAP1 SWAP2 MSTORE PUSH1 0x3 DUP2 ADD SLOAD PUSH1 0x60 DUP6 ADD MSTORE PUSH1 0x4 DUP2 ADD SLOAD PUSH1 0xFF AND ISZERO ISZERO PUSH1 0x80 DUP6 ADD MSTORE PUSH1 0x5 ADD SLOAD PUSH1 0xA0 DUP5 ADD MSTORE SWAP1 SWAP2 SWAP1 DUP3 SUB PUSH2 0x527 JUMPI POP PUSH1 0x0 SWAP3 SWAP2 POP POP JUMP JUMPDEST PUSH1 0x6 SLOAD PUSH1 0x0 PUSH4 0x5F5E100 DUP3 DUP5 PUSH1 0x20 ADD MLOAD PUSH2 0x541 SWAP2 SWAP1 PUSH2 0xAD0 JUMP JUMPDEST PUSH2 0x54B SWAP2 SWAP1 PUSH2 0xAED JUMP JUMPDEST SWAP1 POP DUP1 DUP4 PUSH1 0x40 ADD MLOAD PUSH2 0x2710 PUSH2 0x560 SWAP2 SWAP1 PUSH2 0xAD0 JUMP JUMPDEST PUSH2 0x56A SWAP2 SWAP1 PUSH2 0xAED JUMP JUMPDEST SWAP6 SWAP5 POP POP POP POP POP JUMP JUMPDEST PUSH1 0x0 DUP1 PUSH1 0x0 PUSH2 0x581 DUP5 PUSH2 0x4B3 JUMP JUMPDEST PUSH1 0x1 PUSH1 0x1 PUSH1 0xA0 SHL SUB DUP1 DUP7 AND PUSH1 0x0 SWAP1 DUP2 MSTORE PUSH1 0x20 DUP2 DUP2 MSTORE PUSH1 0x40 DUP1 DUP4 KECCAK256 DUP2 MLOAD PUSH1 0xC0 DUP2 ADD DUP4 MSTORE DUP2 SLOAD SWAP1 SWAP6 AND DUP6 MSTORE PUSH1 0x1 DUP2 ADD SLOAD SWAP3 DUP6 ADD SWAP3 SWAP1 SWAP3 MSTORE PUSH1 0x2 DUP3 ADD SLOAD SWAP1 DUP5 ADD MSTORE PUSH1 0x3 DUP2 ADD SLOAD PUSH1 0x60 DUP5 ADD DUP2 SWAP1 MSTORE PUSH1 0x4 DUP3 ADD SLOAD PUSH1 0xFF AND ISZERO ISZERO PUSH1 0x80 DUP6 ADD MSTORE PUSH1 0x5 SWAP1 SWAP2 ADD SLOAD PUSH1 0xA0 DUP5 ADD MSTORE SWAP3 SWAP4 POP SWAP1 SWAP2 PUSH2 0x5F7 SWAP1 PUSH2 0x1F4 SWAP1 PUSH2 0xB0F JUMP JUMPDEST DUP4 LT ISZERO SWAP7 SWAP3 SWAP6 POP SWAP2 SWAP4 POP POP POP POP JUMP JUMPDEST PUSH2 0x1388 DUP2 GT DUP1 ISZERO PUSH2 0x618 JUMPI POP PUSH2 0x251C DUP2 LT JUMPDEST PUSH2 0x658 JUMPI PUSH1 0x40 MLOAD PUSH3 0x461BCD PUSH1 0xE5 SHL DUP2 MSTORE PUSH1 0x20 PUSH1 0x4 DUP3 ADD MSTORE PUSH1 0x11 PUSH1 0x24 DUP3 ADD MSTORE PUSH17 0x125B9D985B1A59081D1A1C995CDA1BDB19 PUSH1 0x7A SHL PUSH1 0x44 DUP3 ADD MSTORE PUSH1 0x64 ADD PUSH2 0x446 JUMP JUMPDEST PUSH1 0x40 DUP1 MLOAD PUSH1 0xC0 DUP2 ADD DUP3 MSTORE CALLER DUP1 DUP3 MSTORE PUSH1 0x20 DUP1 DUP4 ADD DUP8 DUP2 MSTORE DUP4 DUP6 ADD DUP8 DUP2 MSTORE PUSH1 0x60 DUP6 ADD DUP8 DUP2 MSTORE PUSH1 0x1 PUSH1 0x80 DUP8 ADD DUP2 DUP2 MSTORE TIMESTAMP PUSH1 0xA0 DUP10 ADD SWAP1 DUP2 MSTORE PUSH1 0x0 DUP9 DUP2 MSTORE DUP1 DUP9 MSTORE DUP11 DUP2 KECCAK256 SWAP10 MLOAD DUP11 SLOAD PUSH1 0x1 PUSH1 0x1 PUSH1 0xA0 SHL SUB SWAP1 SWAP2 AND PUSH1 0x1 PUSH1 0x1 PUSH1 0xA0 SHL SUB NOT SWAP2 DUP3 AND OR DUP12 SSTORE SWAP7 MLOAD DUP11 DUP6 ADD SSTORE SWAP5 MLOAD PUSH1 0x2 DUP11 ADD SSTORE SWAP3 MLOAD PUSH1 0x3 DUP10 ADD SSTORE MLOAD PUSH1 0x4 DUP1 DUP10 ADD DUP1 SLOAD SWAP3 ISZERO ISZERO PUSH1 0xFF NOT SWAP1 SWAP4 AND SWAP3 SWAP1 SWAP3 OR SWAP1 SWAP2 SSTORE SWAP2 MLOAD PUSH1 0x5 SWAP1 SWAP8 ADD SWAP7 SWAP1 SWAP7 SSTORE DUP1 SLOAD SWAP6 DUP7 ADD DUP2 SSTORE SWAP1 MSTORE PUSH32 0x8A35ACFBC15FF81A39AE7D344FD709F28E8600B4AA8C65C6B64BFE7FE36BD19B SWAP1 SWAP4 ADD DUP1 SLOAD SWAP1 SWAP4 AND DUP3 OR SWAP1 SWAP3 SSTORE DUP3 MLOAD DUP7 DUP2 MSTORE SWAP2 DUP3 ADD DUP6 SWAP1 MSTORE SWAP2 PUSH32 0x482CFBEB47F8C37DBC7F6D858203153F1728E4EA8F3343F4A3FFC6E7A6157134 SWAP2 ADD PUSH1 0x40 MLOAD DUP1 SWAP2 SUB SWAP1 LOG2 POP POP POP JUMP JUMPDEST PUSH1 0x5 SLOAD PUSH1 0x1 PUSH1 0x1 PUSH1 0xA0 SHL SUB AND CALLER EQ PUSH2 0x789 JUMPI PUSH1 0x40 MLOAD PUSH3 0x461BCD PUSH1 0xE5 SHL DUP2 MSTORE PUSH1 0x4 ADD PUSH2 0x446 SWAP1 PUSH2 0xA97 JUMP JUMPDEST PUSH1 0x1 PUSH1 0x1 PUSH1 0xA0 SHL SUB DUP2 AND PUSH1 0x0 DUP2 DUP2 MSTORE PUSH1 0x3 PUSH1 0x20 MSTORE PUSH1 0x40 DUP1 DUP3 KECCAK256 DUP1 SLOAD PUSH1 0xFF NOT AND PUSH1 0x1 OR SWAP1 SSTORE MLOAD PUSH32 0x26E663C48C070D2D3C2BF6BCF88DC0A1E3AE99C58C36411130BED5924CF95266 SWAP2 SWAP1 LOG2 POP JUMP JUMPDEST CALLER PUSH1 0x0 SWAP1 DUP2 MSTORE PUSH1 0x20 DUP2 SWAP1 MSTORE PUSH1 0x40 SWAP1 KECCAK256 PUSH1 0x4 ADD SLOAD PUSH1 0xFF AND PUSH2 0x82A JUMPI PUSH1 0x40 MLOAD PUSH3 0x461BCD PUSH1 0xE5 SHL DUP2 MSTORE PUSH1 0x20 PUSH1 0x4 DUP3 ADD MSTORE PUSH1 0x10 PUSH1 0x24 DUP3 ADD MSTORE PUSH16 0x5661756C74206E6F7420616374697665 PUSH1 0x80 SHL PUSH1 0x44 DUP3 ADD MSTORE PUSH1 0x64 ADD PUSH2 0x446 JUMP JUMPDEST CALLER PUSH1 0x0 SWAP1 DUP2 MSTORE PUSH1 0x20 DUP2 SWAP1 MSTORE PUSH1 0x40 SWAP1 KECCAK256 PUSH1 0x1 DUP2 ADD SWAP3 SWAP1 SWAP3 SSTORE PUSH1 0x2 DUP3 ADD SSTORE TIMESTAMP PUSH1 0x5 SWAP1 SWAP2 ADD SSTORE JUMP JUMPDEST PUSH1 0x1 PUSH1 0x1 PUSH1 0xA0 SHL SUB DUP1 DUP3 AND PUSH1 0x0 SWAP1 DUP2 MSTORE PUSH1 0x20 DUP2 DUP2 MSTORE PUSH1 0x40 DUP1 DUP4 KECCAK256 DUP2 MLOAD PUSH1 0xC0 DUP2 ADD DUP4 MSTORE DUP2 SLOAD SWAP1 SWAP6 AND DUP6 MSTORE PUSH1 0x1 DUP2 ADD SLOAD SWAP3 DUP6 ADD DUP4 SWAP1 MSTORE PUSH1 0x2 DUP2 ADD SLOAD SWAP2 DUP6 ADD DUP3 SWAP1 MSTORE PUSH1 0x3 DUP2 ADD SLOAD PUSH1 0x60 DUP7 ADD MSTORE PUSH1 0x4 DUP2 ADD SLOAD PUSH1 0xFF AND ISZERO ISZERO PUSH1 0x80 DUP7 ADD MSTORE PUSH1 0x5 ADD SLOAD PUSH1 0xA0 DUP6 ADD MSTORE SWAP2 SWAP3 DUP4 SWAP3 DUP4 SWAP3 DUP4 SWAP3 DUP4 SWAP3 DUP4 SWAP3 SWAP1 PUSH2 0x8C6 DUP11 PUSH2 0x4B3 JUMP JUMPDEST PUSH1 0x60 DUP5 ADD MLOAD PUSH1 0x80 DUP6 ADD MLOAD PUSH1 0xA0 SWAP1 SWAP6 ADD MLOAD SWAP4 SWAP13 SWAP3 SWAP12 POP SWAP1 SWAP10 POP SWAP8 POP SWAP2 SWAP6 POP SWAP4 POP SWAP2 POP POP JUMP JUMPDEST PUSH1 0x4 DUP2 DUP2 SLOAD DUP2 LT PUSH2 0x8FA JUMPI PUSH1 0x0 DUP1 REVERT JUMPDEST PUSH1 0x0 SWAP2 DUP3 MSTORE PUSH1 0x20 SWAP1 SWAP2 KECCAK256 ADD SLOAD PUSH1 0x1 PUSH1 0x1 PUSH1 0xA0 SHL SUB AND SWAP1 POP DUP2 JUMP JUMPDEST PUSH1 0x5 SLOAD PUSH1 0x1 PUSH1 0x1 PUSH1 0xA0 SHL SUB AND CALLER EQ PUSH2 0x93E JUMPI PUSH1 0x40 MLOAD PUSH3 0x461BCD PUSH1 0xE5 SHL DUP2 MSTORE PUSH1 0x4 ADD PUSH2 0x446 SWAP1 PUSH2 0xA97 JUMP JUMPDEST PUSH1 0x6 SSTORE JUMP JUMPDEST PUSH1 0x2 PUSH1 0x20 MSTORE DUP2 PUSH1 0x0 MSTORE PUSH1 0x40 PUSH1 0x0 KECCAK256 DUP2 DUP2 SLOAD DUP2 LT PUSH2 0x95F JUMPI PUSH1 0x0 DUP1 REVERT JUMPDEST PUSH1 0x0 SWAP2 DUP3 MSTORE PUSH1 0x20 SWAP1 SWAP2 KECCAK256 PUSH1 0x3 SWAP1 SWAP2 MUL ADD DUP1 SLOAD PUSH1 0x1 DUP3 ADD SLOAD PUSH1 0x2 SWAP1 SWAP3 ADD SLOAD SWAP1 SWAP4 POP PUSH1 0xFF DUP1 DUP4 AND SWAP4 POP PUSH2 0x100 SWAP1 SWAP3 DIV SWAP1 SWAP2 AND SWAP1 DUP5 JUMP JUMPDEST DUP1 CALLDATALOAD PUSH1 0x1 PUSH1 0x1 PUSH1 0xA0 SHL SUB DUP2 AND DUP2 EQ PUSH2 0x9AA JUMPI PUSH1 0x0 DUP1 REVERT JUMPDEST SWAP2 SWAP1 POP JUMP JUMPDEST PUSH1 0x0 DUP1 PUSH1 0x40 DUP4 DUP6 SUB SLT ISZERO PUSH2 0x9C2 JUMPI PUSH1 0x0 DUP1 REVERT JUMPDEST PUSH2 0x9CB DUP4 PUSH2 0x993 JUMP JUMPDEST SWAP5 PUSH1 0x20 SWAP4 SWAP1 SWAP4 ADD CALLDATALOAD SWAP4 POP POP POP JUMP JUMPDEST PUSH1 0x0 PUSH1 0x20 DUP3 DUP5 SUB SLT ISZERO PUSH2 0x9EB JUMPI PUSH1 0x0 DUP1 REVERT JUMPDEST PUSH2 0x9F4 DUP3 PUSH2 0x993 JUMP JUMPDEST SWAP4 SWAP3 POP POP POP JUMP JUMPDEST PUSH1 0x0 DUP1 PUSH1 0x0 PUSH1 0x60 DUP5 DUP7 SUB SLT ISZERO PUSH2 0xA10 JUMPI PUSH1 0x0 DUP1 REVERT JUMPDEST POP POP DUP2 CALLDATALOAD SWAP4 PUSH1 0x20 DUP4 ADD CALLDATALOAD SWAP4 POP PUSH1 0x40 SWAP1 SWAP3 ADD CALLDATALOAD SWAP2 SWAP1 POP JUMP JUMPDEST PUSH1 0x0 DUP1 PUSH1 0x40 DUP4 DUP6 SUB SLT ISZERO PUSH2 0xA3A JUMPI PUSH1 0x0 DUP1 REVERT JUMPDEST DUP3 CALLDATALOAD SWAP2 POP PUSH1 0x20 DUP4 ADD CALLDATALOAD DUP1 ISZERO ISZERO DUP2 EQ PUSH2 0xA51 JUMPI PUSH1 0x0 DUP1 REVERT JUMPDEST DUP1 SWAP2 POP POP SWAP3 POP SWAP3 SWAP1 POP JUMP JUMPDEST PUSH1 0x0 DUP1 PUSH1 0x40 DUP4 DUP6 SUB SLT ISZERO PUSH2 0xA6F JUMPI PUSH1 0x0 DUP1 REVERT JUMPDEST POP POP DUP1 CALLDATALOAD SWAP3 PUSH1 0x20 SWAP1 SWAP2 ADD CALLDATALOAD SWAP2 POP JUMP JUMPDEST PUSH1 0x0 PUSH1 0x20 DUP3 DUP5 SUB SLT ISZERO PUSH2 0xA90 JUMPI PUSH1 0x0 DUP1 REVERT JUMPDEST POP CALLDATALOAD SWAP2 SWAP1 POP JUMP JUMPDEST PUSH1 0x20 DUP1 DUP3 MSTORE PUSH1 0x9 SWAP1 DUP3 ADD MSTORE PUSH9 0x2737BA1037BBB732B9 PUSH1 0xB9 SHL PUSH1 0x40 DUP3 ADD MSTORE PUSH1 0x60 ADD SWAP1 JUMP JUMPDEST PUSH4 0x4E487B71 PUSH1 0xE0 SHL PUSH1 0x0 MSTORE PUSH1 0x11 PUSH1 0x4 MSTORE PUSH1 0x24 PUSH1 0x0 REVERT JUMPDEST DUP1 DUP3 MUL DUP2 ISZERO DUP3 DUP3 DIV DUP5 EQ OR PUSH2 0xAE7 JUMPI PUSH2 0xAE7 PUSH2 0xABA JUMP JUMPDEST SWAP3 SWAP2 POP POP JUMP JUMPDEST PUSH1 0x0 DUP3 PUSH2 0xB0A JUMPI PUSH4 0x4E487B71 PUSH1 0xE0 SHL PUSH1 0x0 MSTORE PUSH1 0x12 PUSH1 0x4 MSTORE PUSH1 0x24 PUSH1 0x0 REVERT JUMPDEST POP DIV SWAP1 JUMP JUMPDEST DUP2 DUP2 SUB DUP2 DUP2 GT ISZERO PUSH2 0xAE7 JUMPI PUSH2 0xAE7 PUSH2 0xABA JUMP INVALID LOG2 PUSH5 0x6970667358 0x22 SLT KECCAK256 RETURNDATASIZE 0xD4 COINBASE 0xCA ISZERO 0xDF DUP4 CALLDATASIZE 0xE0 ADD PUSH31 0x55B68A53D4B02D01B94502DC0E7BCD8B133BA2951D64736F6C634300081800 CALLER "},"methodIdentifiers":{"LIQUIDATION_BUFFER()":"83da2a3c","authorizeAgent(address)":"6d88b24d","authorizedAgents(address)":"efd76065","calculateLTV(address)":"137a9acb","checkLiquidationRisk(address)":"16b0819e","createVault(uint256,uint256,uint256)":"2910b22d","getLatestPrice()":"8e15f473","getVaultInfo(address)":"90229af7","mockPrice()":"c7207e74","owner()":"8da5cb5b","priceAlerts(address,uint256)":"ff5d4efb","setMockPrice(uint256)":"feca9cc0","setPriceAlert(uint256,bool)":"2ac0cdab","updateVault(uint256,uint256)":"8b60a3ee","updateVaultScore(address,uint256)":"06742307","vaultOwners(uint256)":"d70e3ed3","vaultScores(address)":"73800679","vaults(address)":"a622ee7c"}}}}}