{"contracts/MEVProtector.sol":{"MEVProtector":{"abi":[{"anonymous":false,"inputs":[{"indexed":true,"internalType":"bytes32","name":"originalTx","type":"bytes32"},{"indexed":true,"internalType":"address","name":"attacker","type":"address"},{"indexed":false,"internalType":"string","name":"attackType","type":"string"}],"name":"MEVAttemptBlocked","type":"event"},{"anonymous":false,"inputs":[{"indexed":true,"internalType":"bytes32","name":"txHash","type":"bytes32"},{"indexed":false,"internalType":"uint256","name":"actualSlippage","type":"uint256"}],"name":"SlippageProtectionTriggered","type":"event"},{"anonymous":false,"inputs":[{"indexed":true,"internalType":"bytes32","name":"txHash","type":"bytes32"},{"indexed":true,"internalType":"address","name":"user","type":"address"},{"indexed":false,"internalType":"uint256","name":"slippage","type":"uint256"}],"name":"TransactionProtected","type":"event"},{"anonymous":false,"inputs":[{"indexed":true,"internalType":"address","name":"user","type":"address"}],"name":"UserProtectionEnabled","type":"event"},{"inputs":[{"internalType":"uint256","name":"_defaultSlippage","type":"uint256"}],"name":"enableProtection","outputs":[],"stateMutability":"nonpayable","type":"function"},{"inputs":[],"name":"getProtectionStats","outputs":[{"internalType":"uint256","name":"totalBlocked","type":"uint256"},{"internalType":"uint256","name":"totalProtected","type":"uint256"},{"internalType":"uint256","name":"totalUsers","type":"uint256"}],"stateMutability":"view","type":"function"},{"inputs":[{"internalType":"bytes32","name":"_txHash","type":"bytes32"}],"name":"getTransactionInfo","outputs":[{"internalType":"address","name":"user","type":"address"},{"internalType":"uint256","name":"gasPrice","type":"uint256"},{"internalType":"uint256","name":"timestamp","type":"uint256"},{"internalType":"bool","name":"isProtected","type":"bool"},{"internalType":"uint256","name":"slippageProtection","type":"uint256"}],"stateMutability":"view","type":"function"},{"inputs":[{"internalType":"address","name":"_user","type":"address"}],"name":"getUserMEVAttempts","outputs":[{"components":[{"internalType":"bytes32","name":"originalTxHash","type":"bytes32"},{"internalType":"address","name":"attacker","type":"address"},{"internalType":"uint256","name":"attemptedProfit","type":"uint256"},{"internalType":"uint256","name":"timestamp","type":"uint256"},{"internalType":"bool","name":"wasBlocked","type":"bool"},{"internalType":"string","name":"attackType","type":"string"}],"internalType":"struct MEVProtector.MEVAttempt[]","name":"","type":"tuple[]"}],"stateMutability":"view","type":"function"},{"inputs":[{"internalType":"address","name":"","type":"address"},{"internalType":"uint256","name":"","type":"uint256"}],"name":"mevAttempts","outputs":[{"internalType":"bytes32","name":"originalTxHash","type":"bytes32"},{"internalType":"address","name":"attacker","type":"address"},{"internalType":"uint256","name":"attemptedProfit","type":"uint256"},{"internalType":"uint256","name":"timestamp","type":"uint256"},{"internalType":"bool","name":"wasBlocked","type":"bool"},{"internalType":"string","name":"attackType","type":"string"}],"stateMutability":"view","type":"function"},{"inputs":[{"internalType":"address","name":"","type":"address"}],"name":"protectedUsers","outputs":[{"internalType":"bool","name":"","type":"bool"}],"stateMutability":"view","type":"function"},{"inputs":[{"internalType":"bytes32","name":"_originalTxHash","type":"bytes32"},{"internalType":"address","name":"_attacker","type":"address"},{"internalType":"uint256","name":"_attemptedProfit","type":"uint256"},{"internalType":"string","name":"_attackType","type":"string"}],"name":"reportMEVAttempt","outputs":[],"stateMutability":"nonpayable","type":"function"},{"inputs":[{"internalType":"bytes32","name":"_txHash","type":"bytes32"},{"internalType":"uint256","name":"_suspiciousGasPrice","type":"uint256"},{"internalType":"address","name":"_suspiciousAddress","type":"address"}],"name":"simulateMEVDetection","outputs":[{"internalType":"bool","name":"isSuspicious","type":"bool"},{"internalType":"string","name":"reason","type":"string"}],"stateMutability":"view","type":"function"},{"inputs":[{"internalType":"bytes32","name":"_txHash","type":"bytes32"},{"internalType":"uint256","name":"_gasPrice","type":"uint256"},{"internalType":"uint256","name":"_slippageProtection","type":"uint256"}],"name":"submitProtectedTransaction","outputs":[],"stateMutability":"nonpayable","type":"function"},{"inputs":[],"name":"totalMEVBlocked","outputs":[{"internalType":"uint256","name":"","type":"uint256"}],"stateMutability":"view","type":"function"},{"inputs":[],"name":"totalTransactionsProtected","outputs":[{"internalType":"uint256","name":"","type":"uint256"}],"stateMutability":"view","type":"function"},{"inputs":[{"internalType":"uint256","name":"","type":"uint256"}],"name":"transactionHashes","outputs":[{"internalType":"bytes32","name":"","type":"bytes32"}],"stateMutability":"view","type":"function"},{"inputs":[{"internalType":"bytes32","name":"","type":"bytes32"}],"name":"transactions","outputs":[{"internalType":"address","name":"user","type":"address"},{"internalType":"bytes32","name":"txHash","type":"bytes32"},{"internalType":"uint256","name":"gasPrice","type":"uint256"},{"internalType":"uint256","name":"timestamp","type":"uint256"},{"internalType":"bool","name":"isProtected","type":"bool"},{"internalType":"uint256","name":"slippageProtection","type":"uint256"}],"stateMutability":"view","type":"function"},{"inputs":[{"internalType":"address","name":"","type":"address"}],"name":"userNonces","outputs":[{"internalType":"uint256","name":"","type":"uint256"}],"stateMutability":"view","type":"function"}],"evm":{"bytecode":{"linkReferences":{},"object":"608060405234801561001057600080fd5b50611038806100206000396000f3fe608060405234801561001057600080fd5b50600436106100ea5760003560e01c80635500c12e1161008c57806381a979331161006657806381a97933146103375780638da27fb014610357578063c6ea339714610360578063c73555281461037357600080fd5b80635500c12e14610277578063636d52db14610298578063642f2eaf146102ab57600080fd5b80632f7801f4116100c85780632f7801f41461017157806330001abb1461019157806337d32a5f146101a657806349e6b62c146101c957600080fd5b80631819b9bf146100ef578063213dafcd1461011d57806325cbc7451461013e575b600080fd5b6101026100fd366004610adf565b61037c565b60405161011496959493929190610b4f565b60405180910390f35b61013061012b366004610b96565b61046c565b604051908152602001610114565b61016161014c366004610baf565b60026020526000908152604090205460ff1681565b6040519015158152602001610114565b61013061017f366004610baf565b60036020526000908152604090205481565b6101a461019f366004610bd1565b61048d565b005b6101ae61063a565b60408051938452602084019290925290820152606001610114565b6102436101d7366004610b96565b60009081526020818152604091829020825160c08101845281546001600160a01b03168082526001830154938201939093526002820154938101849052600382015460608201819052600483015460ff1615156080830181905260059093015460a09092018290529294565b604080516001600160a01b03909616865260208601949094529284019190915215156060830152608082015260a001610114565b61028a610285366004610bfd565b6106cc565b604051610114929190610c32565b6101a46102a6366004610c6b565b610814565b6102fe6102b9366004610b96565b6000602081905290815260409020805460018201546002830154600384015460048501546005909501546001600160a01b039094169492939192909160ff9091169086565b604080516001600160a01b03909716875260208701959095529385019290925260608401521515608083015260a082015260c001610114565b61034a610345366004610baf565b610935565b6040516101149190610d40565b61013060055481565b6101a461036e366004610b96565b610a80565b61013060065481565b6001602052816000526040600020818154811061039857600080fd5b60009182526020909120600690910201805460018201546002830154600384015460048501546005860180549598506001600160a01b0390941696509194909360ff9092169290916103e990610dec565b80601f016020809104026020016040519081016040528092919081815260200182805461041590610dec565b80156104625780601f1061043757610100808354040283529160200191610462565b820191906000526020600020905b81548152906001019060200180831161044557829003601f168201915b5050505050905086565b6004818154811061047c57600080fd5b600091825260209091200154905081565b3360009081526002602052604090205460ff166104e65760405162461bcd60e51b8152602060048201526012602482015271155cd95c881b9bdd081c1c9bdd1958dd195960721b60448201526064015b60405180910390fd5b6103e881111561052c5760405162461bcd60e51b81526020600482015260116024820152700a6d8d2e0e0c2ceca40e8dede40d0d2ced607b1b60448201526064016104dd565b6040805160c0810182523381526020808201868152828401868152426060850190815260016080860181815260a0870189815260008c815296879052978620965187546001600160a01b0319166001600160a01b039091161787559351868201559151600286015551600385015590516004808501805460ff1916921515929092179091559351600590930192909255825491820183559182527f8a35acfbc15ff81a39ae7d344fd709f28e8600b4aa8c65c6b64bfe7fe36bd19b0184905560068054916105f983610e3c565b9091555050604051818152339084907f4185dded10ad45fc22c3621121c2f3668dbd0c607038f9596656b2df92194fae9060200160405180910390a3505050565b6000808080805b6004548110156106b957600260008060006004858154811061066557610665610e55565b600091825260208083209091015483528281019390935260409182018120546001600160a01b0316845291830193909352910190205460ff16156106b157816106ad81610e3c565b9250505b600101610641565b5060055460065490959094509092509050565b600083815260208181526040808320815160c08101835281546001600160a01b0316815260018201549381019390935260028101549183018290526003810154606084810191909152600482015460ff161515608085015260059091015460a0840152919060649061073f90606e610e6b565b6107499190610e88565b85111561078f57505060408051808201909152601f81527f476173207072696365206d616e6970756c6174696f6e2064657465637465640060208201526001915061080c565b80600001516001600160a01b0316846001600160a01b0316036107d1576001604051806060016040528060218152602001610fe260219139925092505061080c565b505060408051808201909152601881527f5472616e73616374696f6e2061707065617273207361666500000000000000006020820152600091505b935093915050565b6040805160c0810182528581526001600160a01b038581166020808401918252838501878152426060860190815260016080870181815260a088018a815260008e81528087528a81205489168152838752998a2080548085018255908b52959099208851600690960201948555945190840180546001600160a01b0319169190961617909455516002820155915160038301555160048201805460ff191691151591909117905591519091829160058201906108d09082610efb565b50505082600560008282546108e59190610fbb565b92505081905550836001600160a01b0316857f56a6182bb4fa461654aa878d43607478231709cc825adab6a08bd0d4a547e69a846040516109269190610fce565b60405180910390a35050505050565b6001600160a01b0381166000908152600160209081526040808320805482518185028101850190935280835260609492939192909184015b82821015610a755760008481526020908190206040805160c081018252600686029092018054835260018101546001600160a01b03169383019390935260028301549082015260038201546060820152600482015460ff161515608082015260058201805491929160a0840191906109e490610dec565b80601f0160208091040260200160405190810160405280929190818152602001828054610a1090610dec565b8015610a5d5780601f10610a3257610100808354040283529160200191610a5d565b820191906000526020600020905b815481529060010190602001808311610a4057829003601f168201915b5050505050815250508152602001906001019061096d565b505050509050919050565b33600081815260026020526040808220805460ff19166001179055517f083ac818d0cdc594b0edbf3a6e9905dc2852500110d0f1d23d3e00dac61880d09190a250565b80356001600160a01b0381168114610ada57600080fd5b919050565b60008060408385031215610af257600080fd5b610afb83610ac3565b946020939093013593505050565b6000815180845260005b81811015610b2f57602081850181015186830182015201610b13565b506000602082860101526020601f19601f83011685010191505092915050565b86815260018060a01b0386166020820152846040820152836060820152821515608082015260c060a08201526000610b8a60c0830184610b09565b98975050505050505050565b600060208284031215610ba857600080fd5b5035919050565b600060208284031215610bc157600080fd5b610bca82610ac3565b9392505050565b600080600060608486031215610be657600080fd5b505081359360208301359350604090920135919050565b600080600060608486031215610c1257600080fd5b8335925060208401359150610c2960408501610ac3565b90509250925092565b8215158152604060208201526000610c4d6040830184610b09565b949350505050565b634e487b7160e01b600052604160045260246000fd5b60008060008060808587031215610c8157600080fd5b84359350610c9160208601610ac3565b925060408501359150606085013567ffffffffffffffff80821115610cb557600080fd5b818701915087601f830112610cc957600080fd5b813581811115610cdb57610cdb610c55565b604051601f8201601f19908116603f01168101908382118183101715610d0357610d03610c55565b816040528281528a6020848701011115610d1c57600080fd5b82602086016020830137600060208483010152809550505050505092959194509250565b600060208083018184528085518083526040925060408601915060408160051b87010184880160005b83811015610dde57888303603f19018552815180518452878101516001600160a01b03168885015286810151878501526060808201519085015260808082015115159085015260a09081015160c091850182905290610dca81860183610b09565b968901969450505090860190600101610d69565b509098975050505050505050565b600181811c90821680610e0057607f821691505b602082108103610e2057634e487b7160e01b600052602260045260246000fd5b50919050565b634e487b7160e01b600052601160045260246000fd5b600060018201610e4e57610e4e610e26565b5060010190565b634e487b7160e01b600052603260045260246000fd5b8082028115828204841417610e8257610e82610e26565b92915050565b600082610ea557634e487b7160e01b600052601260045260246000fd5b500490565b601f821115610ef6576000816000526020600020601f850160051c81016020861015610ed35750805b601f850160051c820191505b81811015610ef257828155600101610edf565b5050505b505050565b815167ffffffffffffffff811115610f1557610f15610c55565b610f2981610f238454610dec565b84610eaa565b602080601f831160018114610f5e5760008415610f465750858301515b600019600386901b1c1916600185901b178555610ef2565b600085815260208120601f198616915b82811015610f8d57888601518255948401946001909101908401610f6e565b5085821015610fab5787850151600019600388901b60f8161c191681555b5050505050600190811b01905550565b80820180821115610e8257610e82610e26565b602081526000610bca6020830184610b0956fe53616d65207573657220617474656d7074696e67206d616e6970756c6174696f6ea26469706673582212204f55d3d375746870d2e494c9b6e7767f0bf8e69415fcb772755b3467cb3ee11b64736f6c63430008180033","opcodes":"PUSH1 0x80 PUSH1 0x40 MSTORE CALLVALUE DUP1 ISZERO PUSH2 0x10 JUMPI PUSH1 0x0 DUP1 REVERT JUMPDEST POP PUSH2 0x1038 DUP1 PUSH2 0x20 PUSH1 0x0 CODECOPY PUSH1 0x0 RETURN INVALID PUSH1 0x80 PUSH1 0x40 MSTORE CALLVALUE DUP1 ISZERO PUSH2 0x10 JUMPI PUSH1 0x0 DUP1 REVERT JUMPDEST POP PUSH1 0x4 CALLDATASIZE LT PUSH2 0xEA JUMPI PUSH1 0x0 CALLDATALOAD PUSH1 0xE0 SHR DUP1 PUSH4 0x5500C12E GT PUSH2 0x8C JUMPI DUP1 PUSH4 0x81A97933 GT PUSH2 0x66 JUMPI DUP1 PUSH4 0x81A97933 EQ PUSH2 0x337 JUMPI DUP1 PUSH4 0x8DA27FB0 EQ PUSH2 0x357 JUMPI DUP1 PUSH4 0xC6EA3397 EQ PUSH2 0x360 JUMPI DUP1 PUSH4 0xC7355528 EQ PUSH2 0x373 JUMPI PUSH1 0x0 DUP1 REVERT JUMPDEST DUP1 PUSH4 0x5500C12E EQ PUSH2 0x277 JUMPI DUP1 PUSH4 0x636D52DB EQ PUSH2 0x298 JUMPI DUP1 PUSH4 0x642F2EAF EQ PUSH2 0x2AB JUMPI PUSH1 0x0 DUP1 REVERT JUMPDEST DUP1 PUSH4 0x2F7801F4 GT PUSH2 0xC8 JUMPI DUP1 PUSH4 0x2F7801F4 EQ PUSH2 0x171 JUMPI DUP1 PUSH4 0x30001ABB EQ PUSH2 0x191 JUMPI DUP1 PUSH4 0x37D32A5F EQ PUSH2 0x1A6 JUMPI DUP1 PUSH4 0x49E6B62C EQ PUSH2 0x1C9 JUMPI PUSH1 0x0 DUP1 REVERT JUMPDEST DUP1 PUSH4 0x1819B9BF EQ PUSH2 0xEF JUMPI DUP1 PUSH4 0x213DAFCD EQ PUSH2 0x11D JUMPI DUP1 PUSH4 0x25CBC745 EQ PUSH2 0x13E JUMPI JUMPDEST PUSH1 0x0 DUP1 REVERT JUMPDEST PUSH2 0x102 PUSH2 0xFD CALLDATASIZE PUSH1 0x4 PUSH2 0xADF JUMP JUMPDEST PUSH2 0x37C JUMP JUMPDEST PUSH1 0x40 MLOAD PUSH2 0x114 SWAP7 SWAP6 SWAP5 SWAP4 SWAP3 SWAP2 SWAP1 PUSH2 0xB4F JUMP JUMPDEST PUSH1 0x40 MLOAD DUP1 SWAP2 SUB SWAP1 RETURN JUMPDEST PUSH2 0x130 PUSH2 0x12B CALLDATASIZE PUSH1 0x4 PUSH2 0xB96 JUMP JUMPDEST PUSH2 0x46C JUMP JUMPDEST PUSH1 0x40 MLOAD SWAP1 DUP2 MSTORE PUSH1 0x20 ADD PUSH2 0x114 JUMP JUMPDEST PUSH2 0x161 PUSH2 0x14C CALLDATASIZE PUSH1 0x4 PUSH2 0xBAF JUMP JUMPDEST PUSH1 0x2 PUSH1 0x20 MSTORE PUSH1 0x0 SWAP1 DUP2 MSTORE PUSH1 0x40 SWAP1 KECCAK256 SLOAD PUSH1 0xFF AND DUP2 JUMP JUMPDEST PUSH1 0x40 MLOAD SWAP1 ISZERO ISZERO DUP2 MSTORE PUSH1 0x20 ADD PUSH2 0x114 JUMP JUMPDEST PUSH2 0x130 PUSH2 0x17F CALLDATASIZE PUSH1 0x4 PUSH2 0xBAF JUMP JUMPDEST PUSH1 0x3 PUSH1 0x20 MSTORE PUSH1 0x0 SWAP1 DUP2 MSTORE PUSH1 0x40 SWAP1 KECCAK256 SLOAD DUP2 JUMP JUMPDEST PUSH2 0x1A4 PUSH2 0x19F CALLDATASIZE PUSH1 0x4 PUSH2 0xBD1 JUMP JUMPDEST PUSH2 0x48D JUMP JUMPDEST STOP JUMPDEST PUSH2 0x1AE PUSH2 0x63A JUMP JUMPDEST PUSH1 0x40 DUP1 MLOAD SWAP4 DUP5 MSTORE PUSH1 0x20 DUP5 ADD SWAP3 SWAP1 SWAP3 MSTORE SWAP1 DUP3 ADD MSTORE PUSH1 0x60 ADD PUSH2 0x114 JUMP JUMPDEST PUSH2 0x243 PUSH2 0x1D7 CALLDATASIZE PUSH1 0x4 PUSH2 0xB96 JUMP JUMPDEST PUSH1 0x0 SWAP1 DUP2 MSTORE PUSH1 0x20 DUP2 DUP2 MSTORE PUSH1 0x40 SWAP2 DUP3 SWAP1 KECCAK256 DUP3 MLOAD PUSH1 0xC0 DUP2 ADD DUP5 MSTORE DUP2 SLOAD PUSH1 0x1 PUSH1 0x1 PUSH1 0xA0 SHL SUB AND DUP1 DUP3 MSTORE PUSH1 0x1 DUP4 ADD SLOAD SWAP4 DUP3 ADD SWAP4 SWAP1 SWAP4 MSTORE PUSH1 0x2 DUP3 ADD SLOAD SWAP4 DUP2 ADD DUP5 SWAP1 MSTORE PUSH1 0x3 DUP3 ADD SLOAD PUSH1 0x60 DUP3 ADD DUP2 SWAP1 MSTORE PUSH1 0x4 DUP4 ADD SLOAD PUSH1 0xFF AND ISZERO ISZERO PUSH1 0x80 DUP4 ADD DUP2 SWAP1 MSTORE PUSH1 0x5 SWAP1 SWAP4 ADD SLOAD PUSH1 0xA0 SWAP1 SWAP3 ADD DUP3 SWAP1 MSTORE SWAP3 SWAP5 JUMP JUMPDEST PUSH1 0x40 DUP1 MLOAD PUSH1 0x1 PUSH1 0x1 PUSH1 0xA0 SHL SUB SWAP1 SWAP7 AND DUP7 MSTORE PUSH1 0x20 DUP7 ADD SWAP5 SWAP1 SWAP5 MSTORE SWAP3 DUP5 ADD SWAP2 SWAP1 SWAP2 MSTORE ISZERO ISZERO PUSH1 0x60 DUP4 ADD MSTORE PUSH1 0x80 DUP3 ADD MSTORE PUSH1 0xA0 ADD PUSH2 0x114 JUMP JUMPDEST PUSH2 0x28A PUSH2 0x285 CALLDATASIZE PUSH1 0x4 PUSH2 0xBFD JUMP JUMPDEST PUSH2 0x6CC JUMP JUMPDEST PUSH1 0x40 MLOAD PUSH2 0x114 SWAP3 SWAP2 SWAP1 PUSH2 0xC32 JUMP JUMPDEST PUSH2 0x1A4 PUSH2 0x2A6 CALLDATASIZE PUSH1 0x4 PUSH2 0xC6B JUMP JUMPDEST PUSH2 0x814 JUMP JUMPDEST PUSH2 0x2FE PUSH2 0x2B9 CALLDATASIZE PUSH1 0x4 PUSH2 0xB96 JUMP JUMPDEST PUSH1 0x0 PUSH1 0x20 DUP2 SWAP1 MSTORE SWAP1 DUP2 MSTORE PUSH1 0x40 SWAP1 KECCAK256 DUP1 SLOAD PUSH1 0x1 DUP3 ADD SLOAD PUSH1 0x2 DUP4 ADD SLOAD PUSH1 0x3 DUP5 ADD SLOAD PUSH1 0x4 DUP6 ADD SLOAD PUSH1 0x5 SWAP1 SWAP6 ADD SLOAD PUSH1 0x1 PUSH1 0x1 PUSH1 0xA0 SHL SUB SWAP1 SWAP5 AND SWAP5 SWAP3 SWAP4 SWAP2 SWAP3 SWAP1 SWAP2 PUSH1 0xFF SWAP1 SWAP2 AND SWAP1 DUP7 JUMP JUMPDEST PUSH1 0x40 DUP1 MLOAD PUSH1 0x1 PUSH1 0x1 PUSH1 0xA0 SHL SUB SWAP1 SWAP8 AND DUP8 MSTORE PUSH1 0x20 DUP8 ADD SWAP6 SWAP1 SWAP6 MSTORE SWAP4 DUP6 ADD SWAP3 SWAP1 SWAP3 MSTORE PUSH1 0x60 DUP5 ADD MSTORE ISZERO ISZERO PUSH1 0x80 DUP4 ADD MSTORE PUSH1 0xA0 DUP3 ADD MSTORE PUSH1 0xC0 ADD PUSH2 0x114 JUMP JUMPDEST PUSH2 0x34A PUSH2 0x345 CALLDATASIZE PUSH1 0x4 PUSH2 0xBAF JUMP JUMPDEST PUSH2 0x935 JUMP JUMPDEST PUSH1 0x40 MLOAD PUSH2 0x114 SWAP2 SWAP1 PUSH2 0xD40 JUMP JUMPDEST PUSH2 0x130 PUSH1 0x5 SLOAD DUP2 JUMP JUMPDEST PUSH2 0x1A4 PUSH2 0x36E CALLDATASIZE PUSH1 0x4 PUSH2 0xB96 JUMP JUMPDEST PUSH2 0xA80 JUMP JUMPDEST PUSH2 0x130 PUSH1 0x6 SLOAD DUP2 JUMP JUMPDEST PUSH1 0x1 PUSH1 0x20 MSTORE DUP2 PUSH1 0x0 MSTORE PUSH1 0x40 PUSH1 0x0 KECCAK256 DUP2 DUP2 SLOAD DUP2 LT PUSH2 0x398 JUMPI PUSH1 0x0 DUP1 REVERT JUMPDEST PUSH1 0x0 SWAP2 DUP3 MSTORE PUSH1 0x20 SWAP1 SWAP2 KECCAK256 PUSH1 0x6 SWAP1 SWAP2 MUL ADD DUP1 SLOAD PUSH1 0x1 DUP3 ADD SLOAD PUSH1 0x2 DUP4 ADD SLOAD PUSH1 0x3 DUP5 ADD SLOAD PUSH1 0x4 DUP6 ADD SLOAD PUSH1 0x5 DUP7 ADD DUP1 SLOAD SWAP6 SWAP9 POP PUSH1 0x1 PUSH1 0x1 PUSH1 0xA0 SHL SUB SWAP1 SWAP5 AND SWAP7 POP SWAP2 SWAP5 SWAP1 SWAP4 PUSH1 0xFF SWAP1 SWAP3 AND SWAP3 SWAP1 SWAP2 PUSH2 0x3E9 SWAP1 PUSH2 0xDEC JUMP JUMPDEST DUP1 PUSH1 0x1F ADD PUSH1 0x20 DUP1 SWAP2 DIV MUL PUSH1 0x20 ADD PUSH1 0x40 MLOAD SWAP1 DUP2 ADD PUSH1 0x40 MSTORE DUP1 SWAP3 SWAP2 SWAP1 DUP2 DUP2 MSTORE PUSH1 0x20 ADD DUP3 DUP1 SLOAD PUSH2 0x415 SWAP1 PUSH2 0xDEC JUMP JUMPDEST DUP1 ISZERO PUSH2 0x462 JUMPI DUP1 PUSH1 0x1F LT PUSH2 0x437 JUMPI PUSH2 0x100 DUP1 DUP4 SLOAD DIV MUL DUP4 MSTORE SWAP2 PUSH1 0x20 ADD SWAP2 PUSH2 0x462 JUMP JUMPDEST DUP3 ADD SWAP2 SWAP1 PUSH1 0x0 MSTORE PUSH1 0x20 PUSH1 0x0 KECCAK256 SWAP1 JUMPDEST DUP2 SLOAD DUP2 MSTORE SWAP1 PUSH1 0x1 ADD SWAP1 PUSH1 0x20 ADD DUP1 DUP4 GT PUSH2 0x445 JUMPI DUP3 SWAP1 SUB PUSH1 0x1F AND DUP3 ADD SWAP2 JUMPDEST POP POP POP POP POP SWAP1 POP DUP7 JUMP JUMPDEST PUSH1 0x4 DUP2 DUP2 SLOAD DUP2 LT PUSH2 0x47C JUMPI PUSH1 0x0 DUP1 REVERT JUMPDEST PUSH1 0x0 SWAP2 DUP3 MSTORE PUSH1 0x20 SWAP1 SWAP2 KECCAK256 ADD SLOAD SWAP1 POP DUP2 JUMP JUMPDEST CALLER PUSH1 0x0 SWAP1 DUP2 MSTORE PUSH1 0x2 PUSH1 0x20 MSTORE PUSH1 0x40 SWAP1 KECCAK256 SLOAD PUSH1 0xFF AND PUSH2 0x4E6 JUMPI PUSH1 0x40 MLOAD PUSH3 0x461BCD PUSH1 0xE5 SHL DUP2 MSTORE PUSH1 0x20 PUSH1 0x4 DUP3 ADD MSTORE PUSH1 0x12 PUSH1 0x24 DUP3 ADD MSTORE PUSH18 0x155CD95C881B9BDD081C1C9BDD1958DD1959 PUSH1 0x72 SHL PUSH1 0x44 DUP3 ADD MSTORE PUSH1 0x64 ADD JUMPDEST PUSH1 0x40 MLOAD DUP1 SWAP2 SUB SWAP1 REVERT JUMPDEST PUSH2 0x3E8 DUP2 GT ISZERO PUSH2 0x52C JUMPI PUSH1 0x40 MLOAD PUSH3 0x461BCD PUSH1 0xE5 SHL DUP2 MSTORE PUSH1 0x20 PUSH1 0x4 DUP3 ADD MSTORE PUSH1 0x11 PUSH1 0x24 DUP3 ADD MSTORE PUSH17 0xA6D8D2E0E0C2CECA40E8DEDE40D0D2CED PUSH1 0x7B SHL PUSH1 0x44 DUP3 ADD MSTORE PUSH1 0x64 ADD PUSH2 0x4DD JUMP JUMPDEST PUSH1 0x40 DUP1 MLOAD PUSH1 0xC0 DUP2 ADD DUP3 MSTORE CALLER DUP2 MSTORE PUSH1 0x20 DUP1 DUP3 ADD DUP7 DUP2 MSTORE DUP3 DUP5 ADD DUP7 DUP2 MSTORE TIMESTAMP PUSH1 0x60 DUP6 ADD SWAP1 DUP2 MSTORE PUSH1 0x1 PUSH1 0x80 DUP7 ADD DUP2 DUP2 MSTORE PUSH1 0xA0 DUP8 ADD DUP10 DUP2 MSTORE PUSH1 0x0 DUP13 DUP2 MSTORE SWAP7 DUP8 SWAP1 MSTORE SWAP8 DUP7 KECCAK256 SWAP7 MLOAD DUP8 SLOAD PUSH1 0x1 PUSH1 0x1 PUSH1 0xA0 SHL SUB NOT AND PUSH1 0x1 PUSH1 0x1 PUSH1 0xA0 SHL SUB SWAP1 SWAP2 AND OR DUP8 SSTORE SWAP4 MLOAD DUP7 DUP3 ADD SSTORE SWAP2 MLOAD PUSH1 0x2 DUP7 ADD SSTORE MLOAD PUSH1 0x3 DUP6 ADD SSTORE SWAP1 MLOAD PUSH1 0x4 DUP1 DUP6 ADD DUP1 SLOAD PUSH1 0xFF NOT AND SWAP3 ISZERO ISZERO SWAP3 SWAP1 SWAP3 OR SWAP1 SWAP2 SSTORE SWAP4 MLOAD PUSH1 0x5 SWAP1 SWAP4 ADD SWAP3 SWAP1 SWAP3 SSTORE DUP3 SLOAD SWAP2 DUP3 ADD DUP4 SSTORE SWAP2 DUP3 MSTORE PUSH32 0x8A35ACFBC15FF81A39AE7D344FD709F28E8600B4AA8C65C6B64BFE7FE36BD19B ADD DUP5 SWAP1 SSTORE PUSH1 0x6 DUP1 SLOAD SWAP2 PUSH2 0x5F9 DUP4 PUSH2 0xE3C JUMP JUMPDEST SWAP1 SWAP2 SSTORE POP POP PUSH1 0x40 MLOAD DUP2 DUP2 MSTORE CALLER SWAP1 DUP5 SWAP1 PUSH32 0x4185DDED10AD45FC22C3621121C2F3668DBD0C607038F9596656B2DF92194FAE SWAP1 PUSH1 0x20 ADD PUSH1 0x40 MLOAD DUP1 SWAP2 SUB SWAP1 LOG3 POP POP POP JUMP JUMPDEST PUSH1 0x0 DUP1 DUP1 DUP1 DUP1 JUMPDEST PUSH1 0x4 SLOAD DUP2 LT ISZERO PUSH2 0x6B9 JUMPI PUSH1 0x2 PUSH1 0x0 DUP1 PUSH1 0x0 PUSH1 0x4 DUP6 DUP2 SLOAD DUP2 LT PUSH2 0x665 JUMPI PUSH2 0x665 PUSH2 0xE55 JUMP JUMPDEST PUSH1 0x0 SWAP2 DUP3 MSTORE PUSH1 0x20 DUP1 DUP4 KECCAK256 SWAP1 SWAP2 ADD SLOAD DUP4 MSTORE DUP3 DUP2 ADD SWAP4 SWAP1 SWAP4 MSTORE PUSH1 0x40 SWAP2 DUP3 ADD DUP2 KECCAK256 SLOAD PUSH1 0x1 PUSH1 0x1 PUSH1 0xA0 SHL SUB AND DUP5 MSTORE SWAP2 DUP4 ADD SWAP4 SWAP1 SWAP4 MSTORE SWAP2 ADD SWAP1 KECCAK256 SLOAD PUSH1 0xFF AND ISZERO PUSH2 0x6B1 JUMPI DUP2 PUSH2 0x6AD DUP2 PUSH2 0xE3C JUMP JUMPDEST SWAP3 POP POP JUMPDEST PUSH1 0x1 ADD PUSH2 0x641 JUMP JUMPDEST POP PUSH1 0x5 SLOAD PUSH1 0x6 SLOAD SWAP1 SWAP6 SWAP1 SWAP5 POP SWAP1 SWAP3 POP SWAP1 POP JUMP JUMPDEST PUSH1 0x0 DUP4 DUP2 MSTORE PUSH1 0x20 DUP2 DUP2 MSTORE PUSH1 0x40 DUP1 DUP4 KECCAK256 DUP2 MLOAD PUSH1 0xC0 DUP2 ADD DUP4 MSTORE DUP2 SLOAD PUSH1 0x1 PUSH1 0x1 PUSH1 0xA0 SHL SUB AND DUP2 MSTORE PUSH1 0x1 DUP3 ADD SLOAD SWAP4 DUP2 ADD SWAP4 SWAP1 SWAP4 MSTORE PUSH1 0x2 DUP2 ADD SLOAD SWAP2 DUP4 ADD DUP3 SWAP1 MSTORE PUSH1 0x3 DUP2 ADD SLOAD PUSH1 0x60 DUP5 DUP2 ADD SWAP2 SWAP1 SWAP2 MSTORE PUSH1 0x4 DUP3 ADD SLOAD PUSH1 0xFF AND ISZERO ISZERO PUSH1 0x80 DUP6 ADD MSTORE PUSH1 0x5 SWAP1 SWAP2 ADD SLOAD PUSH1 0xA0 DUP5 ADD MSTORE SWAP2 SWAP1 PUSH1 0x64 SWAP1 PUSH2 0x73F SWAP1 PUSH1 0x6E PUSH2 0xE6B JUMP JUMPDEST PUSH2 0x749 SWAP2 SWAP1 PUSH2 0xE88 JUMP JUMPDEST DUP6 GT ISZERO PUSH2 0x78F JUMPI POP POP PUSH1 0x40 DUP1 MLOAD DUP1 DUP3 ADD SWAP1 SWAP2 MSTORE PUSH1 0x1F DUP2 MSTORE PUSH32 0x476173207072696365206D616E6970756C6174696F6E20646574656374656400 PUSH1 0x20 DUP3 ADD MSTORE PUSH1 0x1 SWAP2 POP PUSH2 0x80C JUMP JUMPDEST DUP1 PUSH1 0x0 ADD MLOAD PUSH1 0x1 PUSH1 0x1 PUSH1 0xA0 SHL SUB AND DUP5 PUSH1 0x1 PUSH1 0x1 PUSH1 0xA0 SHL SUB AND SUB PUSH2 0x7D1 JUMPI PUSH1 0x1 PUSH1 0x40 MLOAD DUP1 PUSH1 0x60 ADD PUSH1 0x40 MSTORE DUP1 PUSH1 0x21 DUP2 MSTORE PUSH1 0x20 ADD PUSH2 0xFE2 PUSH1 0x21 SWAP2 CODECOPY SWAP3 POP SWAP3 POP POP PUSH2 0x80C JUMP JUMPDEST POP POP PUSH1 0x40 DUP1 MLOAD DUP1 DUP3 ADD SWAP1 SWAP2 MSTORE PUSH1 0x18 DUP2 MSTORE PUSH32 0x5472616E73616374696F6E206170706561727320736166650000000000000000 PUSH1 0x20 DUP3 ADD MSTORE PUSH1 0x0 SWAP2 POP JUMPDEST SWAP4 POP SWAP4 SWAP2 POP POP JUMP JUMPDEST PUSH1 0x40 DUP1 MLOAD PUSH1 0xC0 DUP2 ADD DUP3 MSTORE DUP6 DUP2 MSTORE PUSH1 0x1 PUSH1 0x1 PUSH1 0xA0 SHL SUB DUP6 DUP2 AND PUSH1 0x20 DUP1 DUP5 ADD SWAP2 DUP3 MSTORE DUP4 DUP6 ADD DUP8 DUP2 MSTORE TIMESTAMP PUSH1 0x60 DUP7 ADD SWAP1 DUP2 MSTORE PUSH1 0x1 PUSH1 0x80 DUP8 ADD DUP2 DUP2 MSTORE PUSH1 0xA0 DUP9 ADD DUP11 DUP2 MSTORE PUSH1 0x0 DUP15 DUP2 MSTORE DUP1 DUP8 MSTORE DUP11 DUP2 KECCAK256 SLOAD DUP10 AND DUP2 MSTORE DUP4 DUP8 MSTORE SWAP10 DUP11 KECCAK256 DUP1 SLOAD DUP1 DUP6 ADD DUP3 SSTORE SWAP1 DUP12 MSTORE SWAP6 SWAP1 SWAP10 KECCAK256 DUP9 MLOAD PUSH1 0x6 SWAP1 SWAP7 MUL ADD SWAP5 DUP6 SSTORE SWAP5 MLOAD SWAP1 DUP5 ADD DUP1 SLOAD PUSH1 0x1 PUSH1 0x1 PUSH1 0xA0 SHL SUB NOT AND SWAP2 SWAP1 SWAP7 AND OR SWAP1 SWAP5 SSTORE MLOAD PUSH1 0x2 DUP3 ADD SSTORE SWAP2 MLOAD PUSH1 0x3 DUP4 ADD SSTORE MLOAD PUSH1 0x4 DUP3 ADD DUP1 SLOAD PUSH1 0xFF NOT AND SWAP2 ISZERO ISZERO SWAP2 SWAP1 SWAP2 OR SWAP1 SSTORE SWAP2 MLOAD SWAP1 SWAP2 DUP3 SWAP2 PUSH1 0x5 DUP3 ADD SWAP1 PUSH2 0x8D0 SWAP1 DUP3 PUSH2 0xEFB JUMP JUMPDEST POP POP POP DUP3 PUSH1 0x5 PUSH1 0x0 DUP3 DUP3 SLOAD PUSH2 0x8E5 SWAP2 SWAP1 PUSH2 0xFBB JUMP JUMPDEST SWAP3 POP POP DUP2 SWAP1 SSTORE POP DUP4 PUSH1 0x1 PUSH1 0x1 PUSH1 0xA0 SHL SUB AND DUP6 PUSH32 0x56A6182BB4FA461654AA878D43607478231709CC825ADAB6A08BD0D4A547E69A DUP5 PUSH1 0x40 MLOAD PUSH2 0x926 SWAP2 SWAP1 PUSH2 0xFCE JUMP JUMPDEST PUSH1 0x40 MLOAD DUP1 SWAP2 SUB SWAP1 LOG3 POP POP POP POP POP JUMP JUMPDEST PUSH1 0x1 PUSH1 0x1 PUSH1 0xA0 SHL SUB DUP2 AND PUSH1 0x0 SWAP1 DUP2 MSTORE PUSH1 0x1 PUSH1 0x20 SWAP1 DUP2 MSTORE PUSH1 0x40 DUP1 DUP4 KECCAK256 DUP1 SLOAD DUP3 MLOAD DUP2 DUP6 MUL DUP2 ADD DUP6 ADD SWAP1 SWAP4 MSTORE DUP1 DUP4 MSTORE PUSH1 0x60 SWAP5 SWAP3 SWAP4 SWAP2 SWAP3 SWAP1 SWAP2 DUP5 ADD JUMPDEST DUP3 DUP3 LT ISZERO PUSH2 0xA75 JUMPI PUSH1 0x0 DUP5 DUP2 MSTORE PUSH1 0x20 SWAP1 DUP2 SWAP1 KECCAK256 PUSH1 0x40 DUP1 MLOAD PUSH1 0xC0 DUP2 ADD DUP3 MSTORE PUSH1 0x6 DUP7 MUL SWAP1 SWAP3 ADD DUP1 SLOAD DUP4 MSTORE PUSH1 0x1 DUP2 ADD SLOAD PUSH1 0x1 PUSH1 0x1 PUSH1 0xA0 SHL SUB AND SWAP4 DUP4 ADD SWAP4 SWAP1 SWAP4 MSTORE PUSH1 0x2 DUP4 ADD SLOAD SWAP1 DUP3 ADD MSTORE PUSH1 0x3 DUP3 ADD SLOAD PUSH1 0x60 DUP3 ADD MSTORE PUSH1 0x4 DUP3 ADD SLOAD PUSH1 0xFF AND ISZERO ISZERO PUSH1 0x80 DUP3 ADD MSTORE PUSH1 0x5 DUP3 ADD DUP1 SLOAD SWAP2 SWAP3 SWAP2 PUSH1 0xA0 DUP5 ADD SWAP2 SWAP1 PUSH2 0x9E4 SWAP1 PUSH2 0xDEC JUMP JUMPDEST DUP1 PUSH1 0x1F ADD PUSH1 0x20 DUP1 SWAP2 DIV MUL PUSH1 0x20 ADD PUSH1 0x40 MLOAD SWAP1 DUP2 ADD PUSH1 0x40 MSTORE DUP1 SWAP3 SWAP2 SWAP1 DUP2 DUP2 MSTORE PUSH1 0x20 ADD DUP3 DUP1 SLOAD PUSH2 0xA10 SWAP1 PUSH2 0xDEC JUMP JUMPDEST DUP1 ISZERO PUSH2 0xA5D JUMPI DUP1 PUSH1 0x1F LT PUSH2 0xA32 JUMPI PUSH2 0x100 DUP1 DUP4 SLOAD DIV MUL DUP4 MSTORE SWAP2 PUSH1 0x20 ADD SWAP2 PUSH2 0xA5D JUMP JUMPDEST DUP3 ADD SWAP2 SWAP1 PUSH1 0x0 MSTORE PUSH1 0x20 PUSH1 0x0 KECCAK256 SWAP1 JUMPDEST DUP2 SLOAD DUP2 MSTORE SWAP1 PUSH1 0x1 ADD SWAP1 PUSH1 0x20 ADD DUP1 DUP4 GT PUSH2 0xA40 JUMPI DUP3 SWAP1 SUB PUSH1 0x1F AND DUP3 ADD SWAP2 JUMPDEST POP POP POP POP POP DUP2 MSTORE POP POP DUP2 MSTORE PUSH1 0x20 ADD SWAP1 PUSH1 0x1 ADD SWAP1 PUSH2 0x96D JUMP JUMPDEST POP POP POP POP SWAP1 POP SWAP2 SWAP1 POP JUMP JUMPDEST CALLER PUSH1 0x0 DUP2 DUP2 MSTORE PUSH1 0x2 PUSH1 0x20 MSTORE PUSH1 0x40 DUP1 DUP3 KECCAK256 DUP1 SLOAD PUSH1 0xFF NOT AND PUSH1 0x1 OR SWAP1 SSTORE MLOAD PUSH32 0x83AC818D0CDC594B0EDBF3A6E9905DC2852500110D0F1D23D3E00DAC61880D0 SWAP2 SWAP1 LOG2 POP JUMP JUMPDEST DUP1 CALLDATALOAD PUSH1 0x1 PUSH1 0x1 PUSH1 0xA0 SHL SUB DUP2 AND DUP2 EQ PUSH2 0xADA JUMPI PUSH1 0x0 DUP1 REVERT JUMPDEST SWAP2 SWAP1 POP JUMP JUMPDEST PUSH1 0x0 DUP1 PUSH1 0x40 DUP4 DUP6 SUB SLT ISZERO PUSH2 0xAF2 JUMPI PUSH1 0x0 DUP1 REVERT JUMPDEST PUSH2 0xAFB DUP4 PUSH2 0xAC3 JUMP JUMPDEST SWAP5 PUSH1 0x20 SWAP4 SWAP1 SWAP4 ADD CALLDATALOAD SWAP4 POP POP POP JUMP JUMPDEST PUSH1 0x0 DUP2 MLOAD DUP1 DUP5 MSTORE PUSH1 0x0 JUMPDEST DUP2 DUP2 LT ISZERO PUSH2 0xB2F JUMPI PUSH1 0x20 DUP2 DUP6 ADD DUP2 ADD MLOAD DUP7 DUP4 ADD DUP3 ADD MSTORE ADD PUSH2 0xB13 JUMP JUMPDEST POP PUSH1 0x0 PUSH1 0x20 DUP3 DUP7 ADD ADD MSTORE PUSH1 0x20 PUSH1 0x1F NOT PUSH1 0x1F DUP4 ADD AND DUP6 ADD ADD SWAP2 POP POP SWAP3 SWAP2 POP POP JUMP JUMPDEST DUP7 DUP2 MSTORE PUSH1 0x1 DUP1 PUSH1 0xA0 SHL SUB DUP7 AND PUSH1 0x20 DUP3 ADD MSTORE DUP5 PUSH1 0x40 DUP3 ADD MSTORE DUP4 PUSH1 0x60 DUP3 ADD MSTORE DUP3 ISZERO ISZERO PUSH1 0x80 DUP3 ADD MSTORE PUSH1 0xC0 PUSH1 0xA0 DUP3 ADD MSTORE PUSH1 0x0 PUSH2 0xB8A PUSH1 0xC0 DUP4 ADD DUP5 PUSH2 0xB09 JUMP JUMPDEST SWAP9 SWAP8 POP POP POP POP POP POP POP POP JUMP JUMPDEST PUSH1 0x0 PUSH1 0x20 DUP3 DUP5 SUB SLT ISZERO PUSH2 0xBA8 JUMPI PUSH1 0x0 DUP1 REVERT JUMPDEST POP CALLDATALOAD SWAP2 SWAP1 POP JUMP JUMPDEST PUSH1 0x0 PUSH1 0x20 DUP3 DUP5 SUB SLT ISZERO PUSH2 0xBC1 JUMPI PUSH1 0x0 DUP1 REVERT JUMPDEST PUSH2 0xBCA DUP3 PUSH2 0xAC3 JUMP JUMPDEST SWAP4 SWAP3 POP POP POP JUMP JUMPDEST PUSH1 0x0 DUP1 PUSH1 0x0 PUSH1 0x60 DUP5 DUP7 SUB SLT ISZERO PUSH2 0xBE6 JUMPI PUSH1 0x0 DUP1 REVERT JUMPDEST POP POP DUP2 CALLDATALOAD SWAP4 PUSH1 0x20 DUP4 ADD CALLDATALOAD SWAP4 POP PUSH1 0x40 SWAP1 SWAP3 ADD CALLDATALOAD SWAP2 SWAP1 POP JUMP JUMPDEST PUSH1 0x0 DUP1 PUSH1 0x0 PUSH1 0x60 DUP5 DUP7 SUB SLT ISZERO PUSH2 0xC12 JUMPI PUSH1 0x0 DUP1 REVERT JUMPDEST DUP4 CALLDATALOAD SWAP3 POP PUSH1 0x20 DUP5 ADD CALLDATALOAD SWAP2 POP PUSH2 0xC29 PUSH1 0x40 DUP6 ADD PUSH2 0xAC3 JUMP JUMPDEST SWAP1 POP SWAP3 POP SWAP3 POP SWAP3 JUMP JUMPDEST DUP3 ISZERO ISZERO DUP2 MSTORE PUSH1 0x40 PUSH1 0x20 DUP3 ADD MSTORE PUSH1 0x0 PUSH2 0xC4D PUSH1 0x40 DUP4 ADD DUP5 PUSH2 0xB09 JUMP JUMPDEST SWAP5 SWAP4 POP POP POP POP JUMP JUMPDEST PUSH4 0x4E487B71 PUSH1 0xE0 SHL PUSH1 0x0 MSTORE PUSH1 0x41 PUSH1 0x4 MSTORE PUSH1 0x24 PUSH1 0x0 REVERT JUMPDEST PUSH1 0x0 DUP1 PUSH1 0x0 DUP1 PUSH1 0x80 DUP6 DUP8 SUB SLT ISZERO PUSH2 0xC81 JUMPI PUSH1 0x0 DUP1 REVERT JUMPDEST DUP5 CALLDATALOAD SWAP4 POP PUSH2 0xC91 PUSH1 0x20 DUP7 ADD PUSH2 0xAC3 JUMP JUMPDEST SWAP3 POP PUSH1 0x40 DUP6 ADD CALLDATALOAD SWAP2 POP PUSH1 0x60 DUP6 ADD CALLDATALOAD PUSH8 0xFFFFFFFFFFFFFFFF DUP1 DUP3 GT ISZERO PUSH2 0xCB5 JUMPI PUSH1 0x0 DUP1 REVERT JUMPDEST DUP2 DUP8 ADD SWAP2 POP DUP8 PUSH1 0x1F DUP4 ADD SLT PUSH2 0xCC9 JUMPI PUSH1 0x0 DUP1 REVERT JUMPDEST DUP2 CALLDATALOAD DUP2 DUP2 GT ISZERO PUSH2 0xCDB JUMPI PUSH2 0xCDB PUSH2 0xC55 JUMP JUMPDEST PUSH1 0x40 MLOAD PUSH1 0x1F DUP3 ADD PUSH1 0x1F NOT SWAP1 DUP2 AND PUSH1 0x3F ADD AND DUP2 ADD SWAP1 DUP4 DUP3 GT DUP2 DUP4 LT OR ISZERO PUSH2 0xD03 JUMPI PUSH2 0xD03 PUSH2 0xC55 JUMP JUMPDEST DUP2 PUSH1 0x40 MSTORE DUP3 DUP2 MSTORE DUP11 PUSH1 0x20 DUP5 DUP8 ADD ADD GT ISZERO PUSH2 0xD1C JUMPI PUSH1 0x0 DUP1 REVERT JUMPDEST DUP3 PUSH1 0x20 DUP7 ADD PUSH1 0x20 DUP4 ADD CALLDATACOPY PUSH1 0x0 PUSH1 0x20 DUP5 DUP4 ADD ADD MSTORE DUP1 SWAP6 POP POP POP POP POP POP SWAP3 SWAP6 SWAP2 SWAP5 POP SWAP3 POP JUMP JUMPDEST PUSH1 0x0 PUSH1 0x20 DUP1 DUP4 ADD DUP2 DUP5 MSTORE DUP1 DUP6 MLOAD DUP1 DUP4 MSTORE PUSH1 0x40 SWAP3 POP PUSH1 0x40 DUP7 ADD SWAP2 POP PUSH1 0x40 DUP2 PUSH1 0x5 SHL DUP8 ADD ADD DUP5 DUP9 ADD PUSH1 0x0 JUMPDEST DUP4 DUP2 LT ISZERO PUSH2 0xDDE JUMPI DUP9 DUP4 SUB PUSH1 0x3F NOT ADD DUP6 MSTORE DUP2 MLOAD DUP1 MLOAD DUP5 MSTORE DUP8 DUP2 ADD MLOAD PUSH1 0x1 PUSH1 0x1 PUSH1 0xA0 SHL SUB AND DUP9 DUP6 ADD MSTORE DUP7 DUP2 ADD MLOAD DUP8 DUP6 ADD MSTORE PUSH1 0x60 DUP1 DUP3 ADD MLOAD SWAP1 DUP6 ADD MSTORE PUSH1 0x80 DUP1 DUP3 ADD MLOAD ISZERO ISZERO SWAP1 DUP6 ADD MSTORE PUSH1 0xA0 SWAP1 DUP2 ADD MLOAD PUSH1 0xC0 SWAP2 DUP6 ADD DUP3 SWAP1 MSTORE SWAP1 PUSH2 0xDCA DUP2 DUP7 ADD DUP4 PUSH2 0xB09 JUMP JUMPDEST SWAP7 DUP10 ADD SWAP7 SWAP5 POP POP POP SWAP1 DUP7 ADD SWAP1 PUSH1 0x1 ADD PUSH2 0xD69 JUMP JUMPDEST POP SWAP1 SWAP9 SWAP8 POP POP POP POP POP POP POP POP JUMP JUMPDEST PUSH1 0x1 DUP2 DUP2 SHR SWAP1 DUP3 AND DUP1 PUSH2 0xE00 JUMPI PUSH1 0x7F DUP3 AND SWAP2 POP JUMPDEST PUSH1 0x20 DUP3 LT DUP2 SUB PUSH2 0xE20 JUMPI PUSH4 0x4E487B71 PUSH1 0xE0 SHL PUSH1 0x0 MSTORE PUSH1 0x22 PUSH1 0x4 MSTORE PUSH1 0x24 PUSH1 0x0 REVERT JUMPDEST POP SWAP2 SWAP1 POP JUMP JUMPDEST PUSH4 0x4E487B71 PUSH1 0xE0 SHL PUSH1 0x0 MSTORE PUSH1 0x11 PUSH1 0x4 MSTORE PUSH1 0x24 PUSH1 0x0 REVERT JUMPDEST PUSH1 0x0 PUSH1 0x1 DUP3 ADD PUSH2 0xE4E JUMPI PUSH2 0xE4E PUSH2 0xE26 JUMP JUMPDEST POP PUSH1 0x1 ADD SWAP1 JUMP JUMPDEST PUSH4 0x4E487B71 PUSH1 0xE0 SHL PUSH1 0x0 MSTORE PUSH1 0x32 PUSH1 0x4 MSTORE PUSH1 0x24 PUSH1 0x0 REVERT JUMPDEST DUP1 DUP3 MUL DUP2 ISZERO DUP3 DUP3 DIV DUP5 EQ OR PUSH2 0xE82 JUMPI PUSH2 0xE82 PUSH2 0xE26 JUMP JUMPDEST SWAP3 SWAP2 POP POP JUMP JUMPDEST PUSH1 0x0 DUP3 PUSH2 0xEA5 JUMPI PUSH4 0x4E487B71 PUSH1 0xE0 SHL PUSH1 0x0 MSTORE PUSH1 0x12 PUSH1 0x4 MSTORE PUSH1 0x24 PUSH1 0x0 REVERT JUMPDEST POP DIV SWAP1 JUMP JUMPDEST PUSH1 0x1F DUP3 GT ISZERO PUSH2 0xEF6 JUMPI PUSH1 0x0 DUP2 PUSH1 0x0 MSTORE PUSH1 0x20 PUSH1 0x0 KECCAK256 PUSH1 0x1F DUP6 ADD PUSH1 0x5 SHR DUP2 ADD PUSH1 0x20 DUP7 LT ISZERO PUSH2 0xED3 JUMPI POP DUP1 JUMPDEST PUSH1 0x1F DUP6 ADD PUSH1 0x5 SHR DUP3 ADD SWAP2 POP JUMPDEST DUP2 DUP2 LT ISZERO PUSH2 0xEF2 JUMPI DUP3 DUP2 SSTORE PUSH1 0x1 ADD PUSH2 0xEDF JUMP JUMPDEST POP POP POP JUMPDEST POP POP POP JUMP JUMPDEST DUP2 MLOAD PUSH8 0xFFFFFFFFFFFFFFFF DUP2 GT ISZERO PUSH2 0xF15 JUMPI PUSH2 0xF15 PUSH2 0xC55 JUMP JUMPDEST PUSH2 0xF29 DUP2 PUSH2 0xF23 DUP5 SLOAD PUSH2 0xDEC JUMP JUMPDEST DUP5 PUSH2 0xEAA JUMP JUMPDEST PUSH1 0x20 DUP1 PUSH1 0x1F DUP4 GT PUSH1 0x1 DUP2 EQ PUSH2 0xF5E JUMPI PUSH1 0x0 DUP5 ISZERO PUSH2 0xF46 JUMPI POP DUP6 DUP4 ADD MLOAD JUMPDEST PUSH1 0x0 NOT PUSH1 0x3 DUP7 SWAP1 SHL SHR NOT AND PUSH1 0x1 DUP6 SWAP1 SHL OR DUP6 SSTORE PUSH2 0xEF2 JUMP JUMPDEST PUSH1 0x0 DUP6 DUP2 MSTORE PUSH1 0x20 DUP2 KECCAK256 PUSH1 0x1F NOT DUP7 AND SWAP2 JUMPDEST DUP3 DUP2 LT ISZERO PUSH2 0xF8D JUMPI DUP9 DUP7 ADD MLOAD DUP3 SSTORE SWAP5 DUP5 ADD SWAP5 PUSH1 0x1 SWAP1 SWAP2 ADD SWAP1 DUP5 ADD PUSH2 0xF6E JUMP JUMPDEST POP DUP6 DUP3 LT ISZERO PUSH2 0xFAB JUMPI DUP8 DUP6 ADD MLOAD PUSH1 0x0 NOT PUSH1 0x3 DUP9 SWAP1 SHL PUSH1 0xF8 AND SHR NOT AND DUP2 SSTORE JUMPDEST POP POP POP POP POP PUSH1 0x1 SWAP1 DUP2 SHL ADD SWAP1 SSTORE POP JUMP JUMPDEST DUP1 DUP3 ADD DUP1 DUP3 GT ISZERO PUSH2 0xE82 JUMPI PUSH2 0xE82 PUSH2 0xE26 JUMP JUMPDEST PUSH1 0x20 DUP2 MSTORE PUSH1 0x0 PUSH2 0xBCA PUSH1 0x20 DUP4 ADD DUP5 PUSH2 0xB09 JUMP INVALID MSTORE8 PUSH2 0x6D65 KECCAK256 PUSH22 0x73657220617474656D7074696E67206D616E6970756C PUSH2 0x7469 PUSH16 0x6EA26469706673582212204F55D3D375 PUSH21 0x6870D2E494C9B6E7767F0BF8E69415FCB772755B34 PUSH8 0xCB3EE11B64736F6C PUSH4 0x43000818 STOP CALLER "},"methodIdentifiers":{"enableProtection(uint256)":"c6ea3397","getProtectionStats()":"37d32a5f","getTransactionInfo(bytes32)":"49e6b62c","getUserMEVAttempts(address)":"81a97933","mevAttempts(address,uint256)":"1819b9bf","protectedUsers(address)":"25cbc745","reportMEVAttempt(bytes32,address,uint256,string)":"636d52db","simulateMEVDetection(bytes32,uint256,address)":"5500c12e","submitProtectedTransaction(bytes32,uint256,uint256)":"30001abb","totalMEVBlocked()":"8da27fb0","totalTransactionsProtected()":"c7355528","transactionHashes(uint256)":"213dafcd","transactions(bytes32)":"642f2eaf","userNonces(address)":"2f7801f4"}}}}}