{
  "_format": "hh-sol-artifact-1",
  "contractName": "YieldOptimizer",
  "sourceName": "contracts/YieldOptimizer.sol",
  "abi": [
    {
      "inputs": [],
      "stateMutability": "nonpayable",
      "type": "constructor"
    },
    {
      "anonymous": false,
      "inputs": [
        {
          "indexed": true,
          "internalType": "address",
          "name": "user",
          "type": "address"
        },
        {
          "indexed": false,
          "internalType": "uint256",
          "name": "fromStrategy",
          "type": "uint256"
        },
        {
          "indexed": false,
          "internalType": "uint256",
          "name": "toStrategy",
          "type": "uint256"
        },
        {
          "indexed": false,
          "internalType": "uint256",
          "name": "amount",
          "type": "uint256"
        }
      ],
      "name": "AutoRebalance",
      "type": "event"
    },
    {
      "anonymous": false,
      "inputs": [
        {
          "indexed": true,
          "internalType": "address",
          "name": "user",
          "type": "address"
        },
        {
          "indexed": false,
          "internalType": "uint256",
          "name": "amount",
          "type": "uint256"
        },
        {
          "indexed": false,
          "internalType": "uint256",
          "name": "strategyId",
          "type": "uint256"
        }
      ],
      "name": "PositionCreated",
      "type": "event"
    },
    {
      "anonymous": false,
      "inputs": [
        {
          "indexed": true,
          "internalType": "uint256",
          "name": "strategyId",
          "type": "uint256"
        },
        {
          "indexed": false,
          "internalType": "string",
          "name": "name",
          "type": "string"
        },
        {
          "indexed": false,
          "internalType": "uint256",
          "name": "apr",
          "type": "uint256"
        }
      ],
      "name": "StrategyAdded",
      "type": "event"
    },
    {
      "anonymous": false,
      "inputs": [
        {
          "indexed": true,
          "internalType": "uint256",
          "name": "strategyId",
          "type": "uint256"
        },
        {
          "indexed": false,
          "internalType": "uint256",
          "name": "newAPR",
          "type": "uint256"
        }
      ],
      "name": "StrategyUpdated",
      "type": "event"
    },
    {
      "anonymous": false,
      "inputs": [
        {
          "indexed": true,
          "internalType": "address",
          "name": "user",
          "type": "address"
        },
        {
          "indexed": false,
          "internalType": "uint256",
          "name": "amount",
          "type": "uint256"
        }
      ],
      "name": "YieldHarvested",
      "type": "event"
    },
    {
      "inputs": [
        {
          "internalType": "address",
          "name": "_user",
          "type": "address"
        }
      ],
      "name": "checkRebalanceOpportunity",
      "outputs": [
        {
          "internalType": "bool",
          "name": "shouldRebalance",
          "type": "bool"
        },
        {
          "internalType": "uint256",
          "name": "currentStrategy",
          "type": "uint256"
        },
        {
          "internalType": "uint256",
          "name": "recommendedStrategy",
          "type": "uint256"
        },
        {
          "internalType": "uint256",
          "name": "aprDifference",
          "type": "uint256"
        }
      ],
      "stateMutability": "view",
      "type": "function"
    },
    {
      "inputs": [
        {
          "internalType": "uint256",
          "name": "_amount",
          "type": "uint256"
        },
        {
          "internalType": "uint256",
          "name": "_strategyId",
          "type": "uint256"
        },
        {
          "internalType": "bool",
          "name": "_autoRebalance",
          "type": "bool"
        }
      ],
      "name": "createPosition",
      "outputs": [],
      "stateMutability": "nonpayable",
      "type": "function"
    },
    {
      "inputs": [
        {
          "internalType": "address",
          "name": "_user",
          "type": "address"
        },
        {
          "internalType": "uint256",
          "name": "_newStrategyId",
          "type": "uint256"
        }
      ],
      "name": "executeRebalance",
      "outputs": [],
      "stateMutability": "nonpayable",
      "type": "function"
    },
    {
      "inputs": [
        {
          "internalType": "uint256",
          "name": "_amount",
          "type": "uint256"
        },
        {
          "internalType": "uint256",
          "name": "_maxRiskScore",
          "type": "uint256"
        }
      ],
      "name": "findOptimalStrategy",
      "outputs": [
        {
          "internalType": "uint256",
          "name": "bestStrategyId",
          "type": "uint256"
        },
        {
          "internalType": "uint256",
          "name": "bestAPR",
          "type": "uint256"
        }
      ],
      "stateMutability": "view",
      "type": "function"
    },
    {
      "inputs": [],
      "name": "getAllStrategies",
      "outputs": [
        {
          "components": [
            {
              "internalType": "string",
              "name": "name",
              "type": "string"
            },
            {
              "internalType": "address",
              "name": "protocol",
              "type": "address"
            },
            {
              "internalType": "uint256",
              "name": "currentAPR",
              "type": "uint256"
            },
            {
              "internalType": "uint256",
              "name": "tvl",
              "type": "uint256"
            },
            {
              "internalType": "uint256",
              "name": "riskScore",
              "type": "uint256"
            },
            {
              "internalType": "bool",
              "name": "isActive",
              "type": "bool"
            },
            {
              "internalType": "uint256",
              "name": "lastUpdated",
              "type": "uint256"
            }
          ],
          "internalType": "struct YieldOptimizer.YieldStrategy[]",
          "name": "",
          "type": "tuple[]"
        }
      ],
      "stateMutability": "view",
      "type": "function"
    },
    {
      "inputs": [
        {
          "internalType": "uint256",
          "name": "_strategyId",
          "type": "uint256"
        }
      ],
      "name": "getStrategyPerformance",
      "outputs": [
        {
          "internalType": "uint256",
          "name": "apr",
          "type": "uint256"
        },
        {
          "internalType": "uint256",
          "name": "tvl",
          "type": "uint256"
        },
        {
          "internalType": "uint256",
          "name": "riskScore",
          "type": "uint256"
        },
        {
          "internalType": "uint256",
          "name": "lastUpdated",
          "type": "uint256"
        },
        {
          "internalType": "bool",
          "name": "isActive",
          "type": "bool"
        }
      ],
      "stateMutability": "view",
      "type": "function"
    },
    {
      "inputs": [
        {
          "internalType": "address",
          "name": "_user",
          "type": "address"
        }
      ],
      "name": "getUserPosition",
      "outputs": [
        {
          "internalType": "uint256",
          "name": "amount",
          "type": "uint256"
        },
        {
          "internalType": "uint256",
          "name": "strategyId",
          "type": "uint256"
        },
        {
          "internalType": "string",
          "name": "strategyName",
          "type": "string"
        },
        {
          "internalType": "uint256",
          "name": "currentAPR",
          "type": "uint256"
        },
        {
          "internalType": "uint256",
          "name": "totalYieldEarned",
          "type": "uint256"
        },
        {
          "internalType": "uint256",
          "name": "pendingYield",
          "type": "uint256"
        },
        {
          "internalType": "bool",
          "name": "autoRebalanceEnabled",
          "type": "bool"
        }
      ],
      "stateMutability": "view",
      "type": "function"
    },
    {
      "inputs": [],
      "name": "rebalanceThreshold",
      "outputs": [
        {
          "internalType": "uint256",
          "name": "",
          "type": "uint256"
        }
      ],
      "stateMutability": "view",
      "type": "function"
    },
    {
      "inputs": [
        {
          "internalType": "uint256",
          "name": "",
          "type": "uint256"
        }
      ],
      "name": "strategies",
      "outputs": [
        {
          "internalType": "string",
          "name": "name",
          "type": "string"
        },
        {
          "internalType": "address",
          "name": "protocol",
          "type": "address"
        },
        {
          "internalType": "uint256",
          "name": "currentAPR",
          "type": "uint256"
        },
        {
          "internalType": "uint256",
          "name": "tvl",
          "type": "uint256"
        },
        {
          "internalType": "uint256",
          "name": "riskScore",
          "type": "uint256"
        },
        {
          "internalType": "bool",
          "name": "isActive",
          "type": "bool"
        },
        {
          "internalType": "uint256",
          "name": "lastUpdated",
          "type": "uint256"
        }
      ],
      "stateMutability": "view",
      "type": "function"
    },
    {
      "inputs": [],
      "name": "strategyCount",
      "outputs": [
        {
          "internalType": "uint256",
          "name": "",
          "type": "uint256"
        }
      ],
      "stateMutability": "view",
      "type": "function"
    },
    {
      "inputs": [],
      "name": "totalValueLocked",
      "outputs": [
        {
          "internalType": "uint256",
          "name": "",
          "type": "uint256"
        }
      ],
      "stateMutability": "view",
      "type": "function"
    },
    {
      "inputs": [
        {
          "internalType": "uint256",
          "name": "_strategyId",
          "type": "uint256"
        },
        {
          "internalType": "uint256",
          "name": "_newAPR",
          "type": "uint256"
        }
      ],
      "name": "updateStrategyAPR",
      "outputs": [],
      "stateMutability": "nonpayable",
      "type": "function"
    },
    {
      "inputs": [
        {
          "internalType": "address",
          "name": "",
          "type": "address"
        }
      ],
      "name": "userPositions",
      "outputs": [
        {
          "internalType": "address",
          "name": "user",
          "type": "address"
        },
        {
          "internalType": "uint256",
          "name": "amount",
          "type": "uint256"
        },
        {
          "internalType": "uint256",
          "name": "strategyId",
          "type": "uint256"
        },
        {
          "internalType": "uint256",
          "name": "entryTime",
          "type": "uint256"
        },
        {
          "internalType": "uint256",
          "name": "lastRebalance",
          "type": "uint256"
        },
        {
          "internalType": "uint256",
          "name": "totalYieldEarned",
          "type": "uint256"
        },
        {
          "internalType": "bool",
          "name": "autoRebalanceEnabled",
          "type": "bool"
        }
      ],
      "stateMutability": "view",
      "type": "function"
    },
    {
      "inputs": [
        {
          "internalType": "address",
          "name": "",
          "type": "address"
        },
        {
          "internalType": "uint256",
          "name": "",
          "type": "uint256"
        }
      ],
      "name": "userStrategyHistory",
      "outputs": [
        {
          "internalType": "uint256",
          "name": "",
          "type": "uint256"
        }
      ],
      "stateMutability": "view",
      "type": "function"
    }
  ],
  "bytecode": "0x608060405260646005553480156200001657600080fd5b5060408051808201909152600981526841617665205553444360b81b60208201526200004f9060016101c264e8d4a5100060036200014d565b60408051808201909152600c81526b436f6d706f756e642044414960a01b60208201526200008e90600261017c69a968163f0a57b4000000826200014d565b60408051808201909152600a8152691659585c9b881554d11560b21b6020820152620000c7906003610208648bb2c9700060056200014d565b60408051808201909152600b81526a10dd5c9d99480cd41bdbdb60aa1b6020820152620001079060046101226a01a784379d99db4200000060016200014d565b60408051808201909152600c81526b086dedceccaf040e6e88aa8960a31b6020820152620001479060056102a86969e10de76676d080000060076200014d565b62000475565b6040805160e0810182528681526001600160a01b0386166020808301919091528183018690526060820185905260808201849052600160a08301524260c08301526003546000908152908190529190912081518190620001ae90826200032a565b5060208201518160010160006101000a8154816001600160a01b0302191690836001600160a01b0316021790555060408201518160020155606082015181600301556080820151816004015560a08201518160050160006101000a81548160ff02191690831515021790555060c082015181600601559050506003547f6775a9046bbe59478dd494d50a36e41b492553c450763494b97c3dc5bd4a93c386856040516200025d929190620003f6565b60405180910390a26003805490600062000277836200044d565b91905055505050505050565b634e487b7160e01b600052604160045260246000fd5b600181811c90821680620002ae57607f821691505b602082108103620002cf57634e487b7160e01b600052602260045260246000fd5b50919050565b601f82111562000325576000816000526020600020601f850160051c81016020861015620003005750805b601f850160051c820191505b8181101562000321578281556001016200030c565b5050505b505050565b81516001600160401b0381111562000346576200034662000283565b6200035e8162000357845462000299565b84620002d5565b602080601f8311600181146200039657600084156200037d5750858301515b600019600386901b1c1916600185901b17855562000321565b600085815260208120601f198616915b82811015620003c757888601518255948401946001909101908401620003a6565b5085821015620003e65787850151600019600388901b60f8161c191681555b5050505050600190811b01905550565b604081526000835180604084015260005b8181101562000426576020818701810151606086840101520162000407565b506000606082850101526060601f19601f8301168401019150508260208301529392505050565b6000600182016200046e57634e487b7160e01b600052601160045260246000fd5b5060010190565b61149780620004856000396000f3fe608060405234801561001057600080fd5b50600436106100ea5760003560e01c806385a74ca81161008c578063d013746c11610066578063d013746c14610296578063d574ea3d146102be578063e7175b47146102e4578063ec18154e146102f757600080fd5b806385a74ca814610239578063c260edd51461026e578063c3b288641461028157600080fd5b80635b7c2dad116100c85780635b7c2dad14610129578063613cf4201461014f5780636b844f2a146101e9578063807cba751461022657600080fd5b806322068b44146100ef5780633dfe9f6a1461010b57806349a5914014610114575b600080fd5b6100f860035481565b6040519081526020015b60405180910390f35b6100f860055481565b6101276101223660046110c5565b610300565b005b61013c610137366004611103565b61037e565b604051610102979695949392919061116b565b6101a861015d366004611103565b600160208190526000918252604090912080549181015460028201546003830154600484015460058501546006909501546001600160a01b0390961695939492939192909160ff1687565b604080516001600160a01b0390981688526020880196909652948601939093526060850191909152608084015260a0830152151560c082015260e001610102565b6101fc6101f73660046111b2565b61053d565b6040805195865260208601949094529284019190915260608301521515608082015260a001610102565b6100f86102343660046111cb565b610678565b61024c610247366004611103565b6106a9565b6040805194151585526020850193909352918301526060820152608001610102565b61012761027c3660046111f5565b61081e565b6102896109f9565b6040516101029190611233565b6102a96102a43660046110c5565b610bc6565b60408051928352602083019190915201610102565b6102d16102cc3660046111b2565b610d1a565b60405161010297969594939291906112e9565b6101276102f23660046111cb565b610dec565b6100f860045481565b600354821061032a5760405162461bcd60e51b815260040161032190611338565b60405180910390fd5b600082815260208181526040918290206002810184905542600690910155905182815283917f4013b0db7cf4aa4abdbe70714f5bcf2f1c3080326667c626ee8cc14a3288282f910160405180910390a25050565b6001600160a01b038082166000908152600160208181526040808420815160e080820184528254909716815293810154848401526002810154848301819052600382015460608681019190915260048301546080870152600583015460a087015260069092015460ff16151560c0860152855291849052808420815195860190915280549394859492938593849384938493928492908290829061042190611362565b80601f016020809104026020016040519081016040528092919081815260200182805461044d90611362565b801561049a5780601f1061046f5761010080835404028352916020019161049a565b820191906000526020600020905b81548152906001019060200180831161047d57829003601f168201915b505050918352505060018201546001600160a01b031660208083019190915260028301546040808401919091526003840154606084015260048401546080840152600584015460ff16151560a08085019190915260069094015460c0909301929092528501518582015184519285015193870151949550909390929061051f8f610fe1565b60c090970151949f939e50919c509a50985092965094509092505050565b6000806000806000806000808881526020019081526020016000206040518060e001604052908160008201805461057390611362565b80601f016020809104026020016040519081016040528092919081815260200182805461059f90611362565b80156105ec5780601f106105c1576101008083540402835291602001916105ec565b820191906000526020600020905b8154815290600101906020018083116105cf57829003601f168201915b505050918352505060018201546001600160a01b03166020820152600282015460408083019190915260038301546060808401919091526004840154608080850191909152600585015460ff16151560a08086019190915260069095015460c094850152918501519085015191850151928501519490930151929b909a50909850919650945092505050565b6002602052816000526040600020818154811061069457600080fd5b90600052602060002001600091509150505481565b6001600160a01b038082166000908152600160208181526040808420815160e0810183528154909616865292830154918501919091526002820154908401526003810154606084015260048101546080840152600581015460a08401526006015460ff16151560c08301819052909182918291829161073657600080600080945094509450945050610817565b60408181018051600090815260208181528382206002015492518252838220600490810154918601519451633404dd1b60e21b8152908101949094526024840181905291928190309063d013746c906044016040805180830381865afa1580156107a4573d6000803e3d6000fd5b505050506040513d601f19601f820116820180604052508101906107c89190611396565b9150915060008482116107dc5760006107e6565b6107e685836113d0565b905060006005548210158015610800575086604001518414155b604090970151969a50959850919650909450505050505b9193509193565b600354821061083f5760405162461bcd60e51b815260040161032190611338565b60008281526020819052604090206005015460ff166108965760405162461bcd60e51b81526020600482015260136024820152725374726174656779206e6f742061637469766560681b6044820152606401610321565b600083116108e65760405162461bcd60e51b815260206004820152601760248201527f416d6f756e74206d75737420626520706f7369746976650000000000000000006044820152606401610321565b6040805160e081018252338082526020808301878152838501878152426060860181815260808701918252600060a088018181528a151560c08a0190815297825260018088528a832099518a546001600160a01b0319166001600160a01b03909116178a5595518987015593516002808a01919091559151600389015591516004808901919091559251600588015594516006909601805460ff19169615159690961790955592825293832080549485018155835282209092018490558154859291906109b49084906113e9565b9091555050604080518481526020810184905233917f4b82aa16e071a61de1a6b9aeec9edab0356331f8122c78683b469ac8e685dabc910160405180910390a2505050565b6060600060035467ffffffffffffffff811115610a1857610a186113fc565b604051908082528060200260200182016040528015610a9457816020015b610a816040518060e001604052806060815260200160006001600160a01b03168152602001600081526020016000815260200160008152602001600015158152602001600081525090565b815260200190600190039081610a365790505b50905060005b600354811015610bc05760008181526020819052604090819020815160e08101909252805482908290610acc90611362565b80601f0160208091040260200160405190810160405280929190818152602001828054610af890611362565b8015610b455780601f10610b1a57610100808354040283529160200191610b45565b820191906000526020600020905b815481529060010190602001808311610b2857829003601f168201915b505050918352505060018201546001600160a01b03166020820152600282015460408201526003820154606082015260048201546080820152600582015460ff16151560a082015260069091015460c0909101528251839083908110610bad57610bad611412565b6020908102919091010152600101610a9a565b50919050565b60008060008060005b600354811015610d0f57600081815260208190526040808220815160e08101909252805482908290610c0090611362565b80601f0160208091040260200160405190810160405280929190818152602001828054610c2c90611362565b8015610c795780601f10610c4e57610100808354040283529160200191610c79565b820191906000526020600020905b815481529060010190602001808311610c5c57829003601f168201915b505050918352505060018201546001600160a01b03166020820152600282015460408201526003820154606082015260048201546080820152600582015460ff16151560a08083019190915260069092015460c0909101528101519091508015610ce7575086816080015111155b8015610cf65750838160400151115b15610d0657806040015193508192505b50600101610bcf565b509590945092505050565b600060208190529081526040902080548190610d3590611362565b80601f0160208091040260200160405190810160405280929190818152602001828054610d6190611362565b8015610dae5780601f10610d8357610100808354040283529160200191610dae565b820191906000526020600020905b815481529060010190602001808311610d9157829003601f168201915b5050506001840154600285015460038601546004870154600588015460069098015496976001600160a01b03909416969295509093509160ff169087565b6001600160a01b03821660009081526001602052604090206006015460ff16610e575760405162461bcd60e51b815260206004820152601a60248201527f4175746f2d726562616c616e6365206e6f7420656e61626c65640000000000006044820152606401610321565b6003548110610e785760405162461bcd60e51b815260040161032190611338565b60008181526020819052604090206005015460ff16610ecf5760405162461bcd60e51b81526020600482015260136024820152725374726174656779206e6f742061637469766560681b6044820152606401610321565b6001600160a01b038216600090815260016020526040812060028101549091610ef785610fe1565b905080836005016000828254610f0d91906113e9565b909155505060028381018590554260048501556001600160a01b0386166000818152602092835260408082208054600180820183559184529285902090920188905590860154815186815293840188905290830152907f1f509714875ec08426282d24dc9d20b37619091c7287bf311242d75e4a87df329060600160405180910390a28015610fda57846001600160a01b03167faf070de27b945892aaad9c44ade61c1ac81cc8459711bba886304b1a2bf847a882604051610fd191815260200190565b60405180910390a25b5050505050565b6001600160a01b038082166000908152600160208181526040808420815160e08101835281549096168652928301549185018290526002830154908501526003820154606085015260048201546080850152600582015460a085015260069091015460ff16151560c0840152909190820361105f5750600092915050565b600081608001514261107191906113d0565b905060008060008460400151815260200190815260200160002060020154905064496cebb800828285602001516110a89190611428565b6110b29190611428565b6110bc919061143f565b95945050505050565b600080604083850312156110d857600080fd5b50508035926020909101359150565b80356001600160a01b03811681146110fe57600080fd5b919050565b60006020828403121561111557600080fd5b61111e826110e7565b9392505050565b6000815180845260005b8181101561114b5760208185018101518683018201520161112f565b506000602082860101526020601f19601f83011685010191505092915050565b87815286602082015260e06040820152600061118a60e0830188611125565b90508560608301528460808301528360a083015282151560c083015298975050505050505050565b6000602082840312156111c457600080fd5b5035919050565b600080604083850312156111de57600080fd5b6111e7836110e7565b946020939093013593505050565b60008060006060848603121561120a57600080fd5b83359250602084013591506040840135801515811461122857600080fd5b809150509250925092565b600060208083018184528085518083526040925060408601915060408160051b87010184880160005b838110156112db57603f19898403018552815160e0815181865261128282870182611125565b838b01516001600160a01b0316878c0152898401518a880152606080850151908801526080808501519088015260a08481015115159088015260c09384015193909601929092525050938601939086019060010161125c565b509098975050505050505050565b60e0815260006112fc60e083018a611125565b6001600160a01b0398909816602083015250604081019590955260608501939093526080840191909152151560a083015260c090910152919050565b60208082526010908201526f496e76616c696420737472617465677960801b604082015260600190565b600181811c9082168061137657607f821691505b602082108103610bc057634e487b7160e01b600052602260045260246000fd5b600080604083850312156113a957600080fd5b505080516020909101519092909150565b634e487b7160e01b600052601160045260246000fd5b818103818111156113e3576113e36113ba565b92915050565b808201808211156113e3576113e36113ba565b634e487b7160e01b600052604160045260246000fd5b634e487b7160e01b600052603260045260246000fd5b80820281158282048414176113e3576113e36113ba565b60008261145c57634e487b7160e01b600052601260045260246000fd5b50049056fea264697066735822122028b7375e97cb99df8d812df2f8469a9d6f34c1f36df654c45369790e5d6358ee64736f6c63430008180033",
  "linkReferences": {},
  "deployedLinkReferences": {}
}