{
  "_format": "hh-sol-artifact-1",
  "contractName": "MEVProtector",
  "sourceName": "contracts/MEVProtector.sol",
  "abi": [
    {
      "anonymous": false,
      "inputs": [
        {
          "indexed": true,
          "internalType": "bytes32",
          "name": "originalTx",
          "type": "bytes32"
        },
        {
          "indexed": true,
          "internalType": "address",
          "name": "attacker",
          "type": "address"
        },
        {
          "indexed": false,
          "internalType": "string",
          "name": "attackType",
          "type": "string"
        }
      ],
      "name": "MEVAttemptBlocked",
      "type": "event"
    },
    {
      "anonymous": false,
      "inputs": [
        {
          "indexed": true,
          "internalType": "bytes32",
          "name": "txHash",
          "type": "bytes32"
        },
        {
          "indexed": false,
          "internalType": "uint256",
          "name": "actualSlippage",
          "type": "uint256"
        }
      ],
      "name": "SlippageProtectionTriggered",
      "type": "event"
    },
    {
      "anonymous": false,
      "inputs": [
        {
          "indexed": true,
          "internalType": "bytes32",
          "name": "txHash",
          "type": "bytes32"
        },
        {
          "indexed": true,
          "internalType": "address",
          "name": "user",
          "type": "address"
        },
        {
          "indexed": false,
          "internalType": "uint256",
          "name": "slippage",
          "type": "uint256"
        }
      ],
      "name": "TransactionProtected",
      "type": "event"
    },
    {
      "anonymous": false,
      "inputs": [
        {
          "indexed": true,
          "internalType": "address",
          "name": "user",
          "type": "address"
        }
      ],
      "name": "UserProtectionEnabled",
      "type": "event"
    },
    {
      "inputs": [
        {
          "internalType": "uint256",
          "name": "_defaultSlippage",
          "type": "uint256"
        }
      ],
      "name": "enableProtection",
      "outputs": [],
      "stateMutability": "nonpayable",
      "type": "function"
    },
    {
      "inputs": [],
      "name": "getProtectionStats",
      "outputs": [
        {
          "internalType": "uint256",
          "name": "totalBlocked",
          "type": "uint256"
        },
        {
          "internalType": "uint256",
          "name": "totalProtected",
          "type": "uint256"
        },
        {
          "internalType": "uint256",
          "name": "totalUsers",
          "type": "uint256"
        }
      ],
      "stateMutability": "view",
      "type": "function"
    },
    {
      "inputs": [
        {
          "internalType": "bytes32",
          "name": "_txHash",
          "type": "bytes32"
        }
      ],
      "name": "getTransactionInfo",
      "outputs": [
        {
          "internalType": "address",
          "name": "user",
          "type": "address"
        },
        {
          "internalType": "uint256",
          "name": "gasPrice",
          "type": "uint256"
        },
        {
          "internalType": "uint256",
          "name": "timestamp",
          "type": "uint256"
        },
        {
          "internalType": "bool",
          "name": "isProtected",
          "type": "bool"
        },
        {
          "internalType": "uint256",
          "name": "slippageProtection",
          "type": "uint256"
        }
      ],
      "stateMutability": "view",
      "type": "function"
    },
    {
      "inputs": [
        {
          "internalType": "address",
          "name": "_user",
          "type": "address"
        }
      ],
      "name": "getUserMEVAttempts",
      "outputs": [
        {
          "components": [
            {
              "internalType": "bytes32",
              "name": "originalTxHash",
              "type": "bytes32"
            },
            {
              "internalType": "address",
              "name": "attacker",
              "type": "address"
            },
            {
              "internalType": "uint256",
              "name": "attemptedProfit",
              "type": "uint256"
            },
            {
              "internalType": "uint256",
              "name": "timestamp",
              "type": "uint256"
            },
            {
              "internalType": "bool",
              "name": "wasBlocked",
              "type": "bool"
            },
            {
              "internalType": "string",
              "name": "attackType",
              "type": "string"
            }
          ],
          "internalType": "struct MEVProtector.MEVAttempt[]",
          "name": "",
          "type": "tuple[]"
        }
      ],
      "stateMutability": "view",
      "type": "function"
    },
    {
      "inputs": [
        {
          "internalType": "address",
          "name": "",
          "type": "address"
        },
        {
          "internalType": "uint256",
          "name": "",
          "type": "uint256"
        }
      ],
      "name": "mevAttempts",
      "outputs": [
        {
          "internalType": "bytes32",
          "name": "originalTxHash",
          "type": "bytes32"
        },
        {
          "internalType": "address",
          "name": "attacker",
          "type": "address"
        },
        {
          "internalType": "uint256",
          "name": "attemptedProfit",
          "type": "uint256"
        },
        {
          "internalType": "uint256",
          "name": "timestamp",
          "type": "uint256"
        },
        {
          "internalType": "bool",
          "name": "wasBlocked",
          "type": "bool"
        },
        {
          "internalType": "string",
          "name": "attackType",
          "type": "string"
        }
      ],
      "stateMutability": "view",
      "type": "function"
    },
    {
      "inputs": [
        {
          "internalType": "address",
          "name": "",
          "type": "address"
        }
      ],
      "name": "protectedUsers",
      "outputs": [
        {
          "internalType": "bool",
          "name": "",
          "type": "bool"
        }
      ],
      "stateMutability": "view",
      "type": "function"
    },
    {
      "inputs": [
        {
          "internalType": "bytes32",
          "name": "_originalTxHash",
          "type": "bytes32"
        },
        {
          "internalType": "address",
          "name": "_attacker",
          "type": "address"
        },
        {
          "internalType": "uint256",
          "name": "_attemptedProfit",
          "type": "uint256"
        },
        {
          "internalType": "string",
          "name": "_attackType",
          "type": "string"
        }
      ],
      "name": "reportMEVAttempt",
      "outputs": [],
      "stateMutability": "nonpayable",
      "type": "function"
    },
    {
      "inputs": [
        {
          "internalType": "bytes32",
          "name": "_txHash",
          "type": "bytes32"
        },
        {
          "internalType": "uint256",
          "name": "_suspiciousGasPrice",
          "type": "uint256"
        },
        {
          "internalType": "address",
          "name": "_suspiciousAddress",
          "type": "address"
        }
      ],
      "name": "simulateMEVDetection",
      "outputs": [
        {
          "internalType": "bool",
          "name": "isSuspicious",
          "type": "bool"
        },
        {
          "internalType": "string",
          "name": "reason",
          "type": "string"
        }
      ],
      "stateMutability": "view",
      "type": "function"
    },
    {
      "inputs": [
        {
          "internalType": "bytes32",
          "name": "_txHash",
          "type": "bytes32"
        },
        {
          "internalType": "uint256",
          "name": "_gasPrice",
          "type": "uint256"
        },
        {
          "internalType": "uint256",
          "name": "_slippageProtection",
          "type": "uint256"
        }
      ],
      "name": "submitProtectedTransaction",
      "outputs": [],
      "stateMutability": "nonpayable",
      "type": "function"
    },
    {
      "inputs": [],
      "name": "totalMEVBlocked",
      "outputs": [
        {
          "internalType": "uint256",
          "name": "",
          "type": "uint256"
        }
      ],
      "stateMutability": "view",
      "type": "function"
    },
    {
      "inputs": [],
      "name": "totalTransactionsProtected",
      "outputs": [
        {
          "internalType": "uint256",
          "name": "",
          "type": "uint256"
        }
      ],
      "stateMutability": "view",
      "type": "function"
    },
    {
      "inputs": [
        {
          "internalType": "uint256",
          "name": "",
          "type": "uint256"
        }
      ],
      "name": "transactionHashes",
      "outputs": [
        {
          "internalType": "bytes32",
          "name": "",
          "type": "bytes32"
        }
      ],
      "stateMutability": "view",
      "type": "function"
    },
    {
      "inputs": [
        {
          "internalType": "bytes32",
          "name": "",
          "type": "bytes32"
        }
      ],
      "name": "transactions",
      "outputs": [
        {
          "internalType": "address",
          "name": "user",
          "type": "address"
        },
        {
          "internalType": "bytes32",
          "name": "txHash",
          "type": "bytes32"
        },
        {
          "internalType": "uint256",
          "name": "gasPrice",
          "type": "uint256"
        },
        {
          "internalType": "uint256",
          "name": "timestamp",
          "type": "uint256"
        },
        {
          "internalType": "bool",
          "name": "isProtected",
          "type": "bool"
        },
        {
          "internalType": "uint256",
          "name": "slippageProtection",
          "type": "uint256"
        }
      ],
      "stateMutability": "view",
      "type": "function"
    },
    {
      "inputs": [
        {
          "internalType": "address",
          "name": "",
          "type": "address"
        }
      ],
      "name": "userNonces",
      "outputs": [
        {
          "internalType": "uint256",
          "name": "",
          "type": "uint256"
        }
      ],
      "stateMutability": "view",
      "type": "function"
    }
  ],
  "bytecode": "0x608060405234801561001057600080fd5b50611038806100206000396000f3fe608060405234801561001057600080fd5b50600436106100ea5760003560e01c80635500c12e1161008c57806381a979331161006657806381a97933146103375780638da27fb014610357578063c6ea339714610360578063c73555281461037357600080fd5b80635500c12e14610277578063636d52db14610298578063642f2eaf146102ab57600080fd5b80632f7801f4116100c85780632f7801f41461017157806330001abb1461019157806337d32a5f146101a657806349e6b62c146101c957600080fd5b80631819b9bf146100ef578063213dafcd1461011d57806325cbc7451461013e575b600080fd5b6101026100fd366004610adf565b61037c565b60405161011496959493929190610b4f565b60405180910390f35b61013061012b366004610b96565b61046c565b604051908152602001610114565b61016161014c366004610baf565b60026020526000908152604090205460ff1681565b6040519015158152602001610114565b61013061017f366004610baf565b60036020526000908152604090205481565b6101a461019f366004610bd1565b61048d565b005b6101ae61063a565b60408051938452602084019290925290820152606001610114565b6102436101d7366004610b96565b60009081526020818152604091829020825160c08101845281546001600160a01b03168082526001830154938201939093526002820154938101849052600382015460608201819052600483015460ff1615156080830181905260059093015460a09092018290529294565b604080516001600160a01b03909616865260208601949094529284019190915215156060830152608082015260a001610114565b61028a610285366004610bfd565b6106cc565b604051610114929190610c32565b6101a46102a6366004610c6b565b610814565b6102fe6102b9366004610b96565b6000602081905290815260409020805460018201546002830154600384015460048501546005909501546001600160a01b039094169492939192909160ff9091169086565b604080516001600160a01b03909716875260208701959095529385019290925260608401521515608083015260a082015260c001610114565b61034a610345366004610baf565b610935565b6040516101149190610d40565b61013060055481565b6101a461036e366004610b96565b610a80565b61013060065481565b6001602052816000526040600020818154811061039857600080fd5b60009182526020909120600690910201805460018201546002830154600384015460048501546005860180549598506001600160a01b0390941696509194909360ff9092169290916103e990610dec565b80601f016020809104026020016040519081016040528092919081815260200182805461041590610dec565b80156104625780601f1061043757610100808354040283529160200191610462565b820191906000526020600020905b81548152906001019060200180831161044557829003601f168201915b5050505050905086565b6004818154811061047c57600080fd5b600091825260209091200154905081565b3360009081526002602052604090205460ff166104e65760405162461bcd60e51b8152602060048201526012602482015271155cd95c881b9bdd081c1c9bdd1958dd195960721b60448201526064015b60405180910390fd5b6103e881111561052c5760405162461bcd60e51b81526020600482015260116024820152700a6d8d2e0e0c2ceca40e8dede40d0d2ced607b1b60448201526064016104dd565b6040805160c0810182523381526020808201868152828401868152426060850190815260016080860181815260a0870189815260008c815296879052978620965187546001600160a01b0319166001600160a01b039091161787559351868201559151600286015551600385015590516004808501805460ff1916921515929092179091559351600590930192909255825491820183559182527f8a35acfbc15ff81a39ae7d344fd709f28e8600b4aa8c65c6b64bfe7fe36bd19b0184905560068054916105f983610e3c565b9091555050604051818152339084907f4185dded10ad45fc22c3621121c2f3668dbd0c607038f9596656b2df92194fae9060200160405180910390a3505050565b6000808080805b6004548110156106b957600260008060006004858154811061066557610665610e55565b600091825260208083209091015483528281019390935260409182018120546001600160a01b0316845291830193909352910190205460ff16156106b157816106ad81610e3c565b9250505b600101610641565b5060055460065490959094509092509050565b600083815260208181526040808320815160c08101835281546001600160a01b0316815260018201549381019390935260028101549183018290526003810154606084810191909152600482015460ff161515608085015260059091015460a0840152919060649061073f90606e610e6b565b6107499190610e88565b85111561078f57505060408051808201909152601f81527f476173207072696365206d616e6970756c6174696f6e2064657465637465640060208201526001915061080c565b80600001516001600160a01b0316846001600160a01b0316036107d1576001604051806060016040528060218152602001610fe260219139925092505061080c565b505060408051808201909152601881527f5472616e73616374696f6e2061707065617273207361666500000000000000006020820152600091505b935093915050565b6040805160c0810182528581526001600160a01b038581166020808401918252838501878152426060860190815260016080870181815260a088018a815260008e81528087528a81205489168152838752998a2080548085018255908b52959099208851600690960201948555945190840180546001600160a01b0319169190961617909455516002820155915160038301555160048201805460ff191691151591909117905591519091829160058201906108d09082610efb565b50505082600560008282546108e59190610fbb565b92505081905550836001600160a01b0316857f56a6182bb4fa461654aa878d43607478231709cc825adab6a08bd0d4a547e69a846040516109269190610fce565b60405180910390a35050505050565b6001600160a01b0381166000908152600160209081526040808320805482518185028101850190935280835260609492939192909184015b82821015610a755760008481526020908190206040805160c081018252600686029092018054835260018101546001600160a01b03169383019390935260028301549082015260038201546060820152600482015460ff161515608082015260058201805491929160a0840191906109e490610dec565b80601f0160208091040260200160405190810160405280929190818152602001828054610a1090610dec565b8015610a5d5780601f10610a3257610100808354040283529160200191610a5d565b820191906000526020600020905b815481529060010190602001808311610a4057829003601f168201915b5050505050815250508152602001906001019061096d565b505050509050919050565b33600081815260026020526040808220805460ff19166001179055517f083ac818d0cdc594b0edbf3a6e9905dc2852500110d0f1d23d3e00dac61880d09190a250565b80356001600160a01b0381168114610ada57600080fd5b919050565b60008060408385031215610af257600080fd5b610afb83610ac3565b946020939093013593505050565b6000815180845260005b81811015610b2f57602081850181015186830182015201610b13565b506000602082860101526020601f19601f83011685010191505092915050565b86815260018060a01b0386166020820152846040820152836060820152821515608082015260c060a08201526000610b8a60c0830184610b09565b98975050505050505050565b600060208284031215610ba857600080fd5b5035919050565b600060208284031215610bc157600080fd5b610bca82610ac3565b9392505050565b600080600060608486031215610be657600080fd5b505081359360208301359350604090920135919050565b600080600060608486031215610c1257600080fd5b8335925060208401359150610c2960408501610ac3565b90509250925092565b8215158152604060208201526000610c4d6040830184610b09565b949350505050565b634e487b7160e01b600052604160045260246000fd5b60008060008060808587031215610c8157600080fd5b84359350610c9160208601610ac3565b925060408501359150606085013567ffffffffffffffff80821115610cb557600080fd5b818701915087601f830112610cc957600080fd5b813581811115610cdb57610cdb610c55565b604051601f8201601f19908116603f01168101908382118183101715610d0357610d03610c55565b816040528281528a6020848701011115610d1c57600080fd5b82602086016020830137600060208483010152809550505050505092959194509250565b600060208083018184528085518083526040925060408601915060408160051b87010184880160005b83811015610dde57888303603f19018552815180518452878101516001600160a01b03168885015286810151878501526060808201519085015260808082015115159085015260a09081015160c091850182905290610dca81860183610b09565b968901969450505090860190600101610d69565b509098975050505050505050565b600181811c90821680610e0057607f821691505b602082108103610e2057634e487b7160e01b600052602260045260246000fd5b50919050565b634e487b7160e01b600052601160045260246000fd5b600060018201610e4e57610e4e610e26565b5060010190565b634e487b7160e01b600052603260045260246000fd5b8082028115828204841417610e8257610e82610e26565b92915050565b600082610ea557634e487b7160e01b600052601260045260246000fd5b500490565b601f821115610ef6576000816000526020600020601f850160051c81016020861015610ed35750805b601f850160051c820191505b81811015610ef257828155600101610edf565b5050505b505050565b815167ffffffffffffffff811115610f1557610f15610c55565b610f2981610f238454610dec565b84610eaa565b602080601f831160018114610f5e5760008415610f465750858301515b600019600386901b1c1916600185901b178555610ef2565b600085815260208120601f198616915b82811015610f8d57888601518255948401946001909101908401610f6e565b5085821015610fab5787850151600019600388901b60f8161c191681555b5050505050600190811b01905550565b80820180821115610e8257610e82610e26565b602081526000610bca6020830184610b0956fe53616d65207573657220617474656d7074696e67206d616e6970756c6174696f6ea26469706673582212204f55d3d375746870d2e494c9b6e7767f0bf8e69415fcb772755b3467cb3ee11b64736f6c63430008180033",
  "linkReferences": {},
  "deployedLinkReferences": {}
}